S01000004279676765726E322E7372656314
S11300000C94D6030C94F3030C94F3030C94F303B1
S11300100C94F3030C94F3030C94F3030C94F30384
S11300200C94F3030C94F3030C94F3030C94F30374
S11300300C94F3030C94F3030C94F3030C94F30364
S11300400C945F0A0C94F3030C94F3030C94F303E1
S11300500C94F3030C94F3030C94F3030C94F30344
S11300600C94F3030C94F3030C94F3030C94F30334
S11300709F0095008800C500C400BC00B400A9001E
S1130080F300E700DB00CE003E434F4E54524F4C8A
S11300904C45523C003E32504C415945523C003E86
S11300A031504C415945523C00434F4E54524F4CF1
S11300B04C45520032504C415945520031504C414C
S11300C0594552000050494E47504F4E4700425543
S11300D054544F4E2053544152540050524553539C
S11300E0205249474854004F4E20534F4C4F4E4FD7
S11300F0494400504C4143452042414C4C000000CF
S11301000000005C00000C000C007C287C2858DCFB
S113011068002410480028542840000C000000788F
S113012084008478000054385400107C100080400F
S11301300000101010000040000060100C00385443
S11301403800487C40004864580044542C001C107B
S11301507C005C5424003854240064140C0068545B
S11301602C00485438000048000080480000102843
S11301704400282828004428100004540800384467
S11301805C00781478007C542800384428007C44AF
S113019038007C5444007C140400384474007C10FF
S11301A07C00447C440020403C007C106C007C407B
S11301B040007C187C0078103C00384438007C14E3
S11301C008003844B8007C14680048542400047CB7
S11301D004007C407C003C603C007C307C006C1063
S11301E06C000C700C0064544C00007C44000C1037
S11301F06000447C00000804080080808000000443
S11302000800304878007C483000304848003048C6
S11302107C00306850001078140090A878007C08A6
S1130220700050744000808074007C106800447C2E
S11302304000781078007808700030483000F828C2
S113024010003048F8007810080050582800083C86
S1130250480038407800384038007820780048302A
S1130260480098A078004868580010788400007C02
S11302700000847810000804080400000000000056
S113028000005F000000000700070000147F147FD7
S11302901400242A7F2A12002313086462003649BA
S11302A055225000000503000000001C22410000FC
S11302B00041221C0000082A1C2A080008083E08E5
S11302C0080000503000000008080808080000601A
S11302D0600000002010080402003E5149453E0021
S11302E000427F4000004261514946002141454B94
S11302F031001814127F10002745454539003C4A47
S1130300494930000171090503003649494936005D
S1130310064949291E000036360000000056360002
S11303200000081C2A0808001414141414000808F7
S11303302A1C0800020151090600324979413E0095
S11303407E1111117E007F49494936003E414141E9
S113035022007F4141221C007F49494941007F0915
S1130360090101003E41415132007F0808087F0025
S113037000417F4100002040413F01007F081422DA
S113038041007F40404040007F0204027F007F0420
S113039008107F003E4141413E007F0909090600E3
S11303A03E4151215E007F091929460046494949C9
S11303B0310001017F0101003F4040403F001F2008
S11303C040201F007F2018207F006314081463005E
S11303D003047804030061514945430000007F4150
S11303E0410002040810200041417F000000040283
S11303F001020400404040404000000102040000AB
S11304002054545478007F484444380038444444C9
S11304102000384444487F00385454541800087E5F
S113042009010200081454543C007F0804047800B5
S113043000447D4000002040443D0000007F10281F
S1130440440000417F4000007C04180478007C08CC
S1130450040478003844444438007C14141408001C
S1130460081414187C007C080404080048545454EC
S11304702000043F444020003C4040207C001C20DD
S113048040201C003C4030403C00442810284400DC
S11304900C5050503C004464544C44000008364115
S11304A0000000007F000000004136080000020147
S11304B003020100000000000000000000065F5F6E
S11304C0060000000007070007070000147F7F14E0
S11304D07F7F1400242E6B6B3A120000466630189E
S11304E00C666200307A4F5D377A480004070300D7
S11304F000000000001C3E63410000000041633E18
S11305001C000000082A3E1C1C3E2A0808083E3E27
S11305100808000000A0E0600000000008080808C7
S11305200808000000006060000000006030180C43
S1130530060301003E7F594D7F3E000042427F7F0B
S113054040400000627359496F66000022634949C4
S11305507F360000181C16137F7F1000276745455F
S11305607D3900003C7E4B497930000003637119EA
S11305700F070000367F49497F360000064F49695E
S11305803F1E000000006C6C0000000000A0EC6C3A
S11305900000000018244299244281001414141409
S11305A01414000081422499422418000203515972
S11305B00F0600003E7F415D5D1F1E007C7E13130D
S11305C07E7C0000417F7F49497F36001C3E6341A9
S11305D041632200417F7F41637F1C00417F7F494B
S11305E05D416300417F7F491D0103001C3E63415F
S11305F0517372007F7F08087F7F000000417F7F76
S113060041000000307040417F3F0100417F7F087E
S11306101C776300417F7F41406070007F7F060C40
S1130620067F7F007F7F060C187F7F001C3E63419E
S1130630633E1C00417F7F49090F06001E3F217164
S11306407F5E0000417F7F19396F460026674D5950
S11306507B32000003417F7F410300007F7F4040E5
S11306607F7F00001F3F60603F1F00007F7F3018C6
S1130670307F7F0063771C081C776300074F78780E
S11306804F0700006773594D47637100007F7F4136
S1130690410000000103060C183060000041417F56
S11306A07F000000080C0603060C08008080808090
S11306B080808080000003070400000020745454EC
S11306C03C784000413F7F44447C3800387C4444BB
S11306D06C280000307848493F7F4000387C5454EF
S11306E05C180000487E7F490302000098BCA4A463
S11306F0F87C0400417F7F08047C780000447D7D01
S11307004000000040C484FD7D000000417F7F1054
S1130710386C440000417F7F400000007C7C0C1852
S11307200C7C78007C7C04047C780000387C444495
S11307307C38000084FCF8A4243C1800183C24A451
S1130740F8FC8400447C78441C180000485C545431
S11307507424000000043E7F442400003C7C40409C
S11307603C7C40001C3C60603C1C00003C7C6030D5
S1130770607C3C00446C3810386C44009CBCA0A0E5
S1130780FC7C00004C64745C4C64000008083E77F8
S11307904141000000000077770000004141773EAE
S11307A008080000020301030203010011241FBE14
S11307B0CFEFD4E0DEBFCDBF11E0A0E0B1E0E0E8D0
S11307C0F2E202C005900D92AE3FB107D9F722E0E4
S11307D0AEEFB1E001C01D92AA31B207E1F70E9469
S11307E03B0B0C943E110C9400008C9AF894EBE8AB
S11307F0F0E0808180648083EAE8F0E080818160B9
S1130800808380818860808381E090E0909387007A
S113081080938600789408950E94F5030895CF93F9
S1130820C82F0E94DD0A60E074E08C2F80680E946B
S1130830E40A80E18A95F1F700C080E094E00E9428
S1130840E80A90E19A95F1F700C090E0CF910895FD
S11308500E941D0B61E088E20E94FA0A65EB89E2BE
S11308600E94FA0A63E48AE20E94FA0A60E08FE0D6
S11308700E94FA0AF89485B7826085BF85B78E7F97
S113088085BF8BB780648BBF789463E08BE20E9452
S1130890FA0A0895FF920F931F93CF93DF93EC010D
S11308A008811981B801769567957695679576954F
S11308B0679581E30E94FA0A602F6295660F607E55
S11308C082E30E94FA0AFA806F2D6F7085E30E941A
S11308D0FA0AFF2079F08E010D5F1F4FD6E3DF0D7A
S11308E0C6E3F80161918F018C2F0E94FA0ACF5F51
S11308F0CD13F7CF81E80E940C0BDF91CF911F91AC
S11309000F91FF900895CF92DF92EF92FF920F9391
S11309101F93CF93DF93CDB7DEB7C059D1400FB645
S1130920F894DEBF0FBECDBF8E0107531F4FCE011B
S113093001967C016E019FE6C91A9EEFD90A81E0F7
S113094090E00E940F04F801819391938F0180E05D
S113095090E00E940F04F701819391937F010C159D
S11309601D0569F764E670E0CE0187539F4F0E942E
S1130970800B8093090264E670E0CE0101960E9428
S1130980800B80930802C057DE4F0FB6F894DEBF89
S11309900FBECDBFDF91CF911F910F91FF90EF90CC
S11309A0DF90CF9008951F93CF93DF9381E090E081
S11309B00E940F04EC0180E090E00E940F049C016F
S11309C0482F809109028C17A8F480910902509154
S11309D00902DD27C81BD10964E66C9FC0016D9F25
S11309E0900D11246FEF70E0651B71090E94980B44
S11309F0FB0118C080910902C81790F48091090284
S1130A0060910902DD27C81BD10954E65C9FC0012F
S1130A105D9F900D112470E00E94980BFB0102C0B1
S1130A20E0E0F0E0809108028417A8F480910802C5
S1130A30409108023327281B310954E6529FC00114
S1130A40539F900D11246FEF70E0641B71090E9495
S1130A50980B9B0118C080910802481790F480916C
S1130A600802609108023327281B310944E6429F9B
S1130A70C001439F900D112470E00E94980B9B01CC
S1130A8002C020E030E0BF01C901DF91CF911F9186
S1130A9008950E94D3046E3CEFEF7E0784F0633325
S1130AA071057CF48E3C2FEF92076CF0C3976CF4C5
S1130AB06E5C7F4F6536710550F080E0089580E0EC
S1130AC0089581E0089582E0089583E0089584E024
S1130AD00895CF93DF93CDB7DEB72B970FB6F89475
S1130AE0DEBF0FBECDBF21E030E03A83298393E01F
S1130AF09B836C838D8386B381708E831F928F93C7
S1130B008CE091E09F938F930E940D0ECE0101968D
S1130B100E944A040F900F900F900F902B960FB6DF
S1130B20F894DEBF0FBECDBFDF91CF9108950E9430
S1130B30AF0868E070E080E291E00E946E090895D9
S1130B400E94AF0868E070E088E291E00E946E09BC
S1130B5082E00E942C0860910A0170910B01E091DF
S1130B60FE01F091FF010480F581E02D0190F081F8
S1130B70E02D828593850E946E0983E00E942C08F3
S1130B8060910A0170910B01E091FE01F091FF0167
S1130B900480F581E02D0280F381E02D808591852C
S1130BA00E946E0908950E94AF0868E070E083E334
S1130BB091E00E946E090895CF93DF93CDB7DEB71D
S1130BC06B970FB6F894DEBF0FBECDBF0E94AF087F
S1130BD00F2EF0E8EF2EF0E0FF2EF02D10E01F5F57
S1130BE0812F0E942C08F70165917491CE01019622
S1130BF00E94A70D68E070E0CE0101960E946E0984
S1130C0082E0E80EF11C143051F7B09BFECF81E076
S1130C1090E09A8B898B83E08B8B86B381708E8B6B
S1130C20CE0141960E944A040E94D3040E946905A1
S1130C30FBCF0E94AF0883E00E942C0868E070E0BC
S1130C408AE391E00E946E092FEF83ED90E3215037
S1130C5080409040E1F700C00000A0910E02B091E6
S1130C600F02B093FF01A093FE01109201021092B3
S1130C7000021296ED91FC91139718968D919C9118
S1130C80199709950895CF92DF92EF92FF920F93EF
S1130C901F93CF93DF938C017B016A018CE090E07A
S1130CA00E94C00BEC01198308831D821C821F82E1
S1130CB01E82F986E886C7010E9491099B878A876C
S1130CC0DB82CA82F801668177816F5F7F4F660F8E
S1130CD0771F848195810E94E10CF80195838483B8
S1130CE026813781A901440F551FFC01E40FF51F2C
S1130CF0D183C0832F5F3F4FF80137832683CE0112
S1130D00DF91CF911F910F91FF90EF90DF90CF90E3
S1130D100895CF92DF92EF92FF921F93CF93DF93C8
S1130D20CDB7DEB760970FB6F894DEBF0FBECDBF68
S1130D308CE090E00E94C00B6C0183E491E0F6012A
S1130D4091878087138612861782168211821082F9
S1130D50138212824CED55E06DE471E0C6010E94ED
S1130D60430647E955E060E271E0C6010E9443068C
S1130D7040EA55E068E271E0C6010E9443067C0146
S1130D8049E156E06AE371E00E94430643ED55E011
S1130D9063E371E0C7010E9443060E94AF080F2E6F
S1130DA0F6E7EF2EF0E0FF2EF02D10E0812F0E94E9
S1130DB02C08F70165917491CE0101960E94A70D4C
S1130DC068E070E0CE0101960E946E091F5FF2E0B8
S1130DD0EF0EF11C163051F782E00E942C08E0E778
S1130DE0F0E065917491CE0101960E94A70D68E030
S1130DF070E0CE0101960E946E09D092FF01C0926C
S1130E00FE0160960FB6F894DEBF0FBECDBFDF9132
S1130E10CF911F91FF90EF90DF90CF900895CF93E3
S1130E20DF930E944905843009F4D1C02FEF87EE87
S1130E3093E0215080409040E1F700C000000E9400
S1130E404905823009F462C0833009F0C0C0809142
S1130E50000290910102181619060CF0B8C08E5FBA
S1130E600E942C08C0E0D2E088818E5F0E94730843
S1130E7060910A0170910B01A091FE01B091FF01F4
S1130E80E0910002F0910102EE0FFF1F14968D9184
S1130E909C911597E80FF91F0190F081E02D808552
S1130EA091850E946E0988818F5F0E942C08888139
S1130EB08F5F0E94730860910A0170910B01A091E9
S1130EC0FE01B091FF01E0910002F0910102E150B6
S1130ED0F048EE0FFF1F14968D919C911597E80F23
S1130EE0F91F0190F081E02D828593850E946E099F
S1130EF08FE791E00E94230E8091000290910102FD
S1130F000197909301028093000261C080910002D6
S1130F1090910102E091FE01F091FF012681378159
S1130F2021503109821793070CF051C08E5F0E9443
S1130F302C08C0E0D2E088818E5F0E947308609123
S1130F400A0170910B01A091FE01B091FF01E091A3
S1130F500002F0910102EE0FFF1F14968D919C91F7
S1130F601597E80FF91F0190F081E02D8085918598
S1130F700E946E0988818D5F0E942C0888818D5F94
S1130F800E94730860910A0170910B01A091FE0107
S1130F90B091FF01E0910002F09101023196EE0F51
S1130FA0FF1F14968D919C911597E80FF91F0190DE
S1130FB0F081E02D828593850E946E098091000264
S1130FC09091010201969093010280930002B299DC
S1130FD034C0E091FE01F091FF0184819581009776
S1130FE0D9F0E0910002F0910102EE0FFF1FE80F2B
S1130FF0F91FA081B181B093FF01A093FE0110926B
S11310000102109200021296ED91FC91139718962A
S11310108D919C91199709952FEF83EC99E02150BC
S113102080409040E1F700C0000082E991E09F9386
S11310308F930E940D0E0F900F90DF91CF91089522
S1131040E0910801F091090190E29083E091080198
S1131050F091090180830895883048F081EA91E095
S11310609F938F930E940D0E0F900F90089590EB15
S1131070980FE0910801F0910901908390E090931A
S11310800B0280930A02089588234CF481EA91E0CC
S11310909F938F930E940D0E0F900F900895282F09
S11310A02F70982F92959F70905FE0910801F091B6
S11310B009019083E0910801F0910901208390E0F7
S11310C090930D0280930C020895CF93C62F0E9433
S11310D02C088C2F0E944408CF91089560E080E092
S11310E00E946508089560E00E94650880E090E031
S11310F0E0910601F0910701E80FF91F10820196B3
S113110080389105A9F7089560E080E00E946508A1
S113111080E00E94200880E090E0E0910601F091D8
S11311200701E80FF91F10820196811524E0920748
S1131130A1F760E084E00E94650880E090E0E0911F
S11311400601F0910701E80FF91F1082019681153D
S113115024E09207A1F782E00E94200808950E94EB
S11311606E080E94840882E00E942008089580523C
S11311706630710509F43BC06830710529F06430AC
S1131180710509F080C05BC020910A0130910B0108
S1131190121613060CF077C090E0880F991F880F81
S11311A0991F880F991F20E030E0AAE0B2E0F9010E
S11311B0E80FF91FEC54FB4F45915491E09106015F
S11311C0F0910701408312964D915C9113974F5F04
S11311D05F4F13965C934E9312972F5F3F4F40914E
S11311E00A0150910B01241735070CF3089590E080
S11311F09C01220F331F820F931F880F991F20E039
S113120030E0AAE0B2E0F901E80FF91FE658FD4F1B
S113121045915491E0910601F091070140831296A3
S11312204D915C9113974F5F5F4F13965C934E9370
S113123012972F5F3F4F2630310529F7089590E02C
S1131240880F991F880F991F20E030E0AAE0B2E0D0
S1131250F901E80FF91FE250FF4F45915491E091D5
S11312600601F0910701408312964D915C9113970A
S11312704F5F5F4F13965C934E9312972F5F3F4FD0
S11312802430310529F70895CF92DF92EF92FF922F
S11312900F931F93CF93DF93EC017B018C01C12C3F
S11312A0D12C09C0B701F80181918F010E94B708C0
S11312B0FFEFCF1ADF0AFE0101900020E9F7319712
S11312C0EC1BFD0BCE16DF0668F3DF91CF911F9167
S11312D00F91FF90EF90DF90CF9008950F931F939D
S11312E0CF93DF93EC018B01FC0101900020E9F71F
S11312F03197E81BF90B6E9F90016F9F300D7E9F15
S1131300300D1124369527958FE3821B0E944408E3
S1131310B801CE010E944409DF91CF911F910F9132
S113132008950F931F93CF93DF938C0184E190E092
S11313300E94C00BEC018EE390E099838883B8018E
S1131340CE010E94B70DFE0101900020E9F731970C
S11313508CE390E091838083CE01DF91CF911F9144
S11313600F910895E0910801F09109018EEA8083BC
S1131370E0910801F091090181EA8083E09108017C
S1131380F09109018AED8083E0910801F09109014F
S113139082E18083E0910801F091090188EC808367
S11313A0E0910801F091090188EA8083E091080145
S11313B0F09109018FE38083E0910801F091090124
S11313C085ED8083E0910801F091090180E8808334
S11313D0E0910801F091090181E88083E09108011E
S11313E0F091090180E58083E0910801F091090101
S11313F089ED8083E0910801F091090181E2808305
S1131400E0910801F091090180E28083E0910801F4
S1131410F091090182E08083E0910801F0910901D3
S11314208BED8083E0910801F091090180E38083D2
S1131430E0910801F09109018DEA8083E0910801AF
S1131440F09109011082E0910801F091090184EA08
S11314508083E0910801F091090186EA8083E0919C
S11314600801F09109018FEA80830E94840860E0FA
S113147080E00E946508089580EB87BB8A9A81E525
S11314808DB9C49AC29A08958FB9779BFECF0895F7
S113149085E48FB9779BFECF8FB1089583B78460BD
S11314A083BF83B7886083BF83B78F7B83BF81B7D4
S11314B0806C81BF89B7816089BF789408951F9239
S11314C00F920FB60F9211242F933F934F935F9374
S11314D06F937F938F939F93AF93BF93EF93FF93F8
S11314E020910602309107022F5F3F4F309307028D
S11314F020930602C9016AE070E00E94980B892BD0
S1131500A9F580910202909103020196909303023F
S113151080930202C90164E670E00E94980B892B53
S113152069F480910402909105020196909305025A
S1131530809304021092030210920202809103022B
S11315408F93809102028F93809105028F938091F3
S113155004028F9382EC91E09F938F930E940D0E6F
S11315600F900F900F900F900F900F90FF91EF91AD
S1131570BF91AF919F918F917F916F915F914F91A7
S11315803F912F910F900FBE0F901F90189590BD13
S113159089B988E18AB98EE880BD60E070E088EDA1
S11315A09AE00E94C20D08955D9BFECF8CB9089508
S11315B00E94D40A80E090E0089585B7806885BFD2
S11315C080B7806280BF0895FB01F05F8083089537
S11315D0905FFC0180810895CF93C82FC49883E065
S11315E00E94440A8C2F0E94440A0E94480AC49A0A
S11315F0CF910895CF93DF93D82FC62FC49882E05C
S11316000E94440A8D2F0E94440A8C2F0E94440A8F
S1131610C49ADF91CF910895C4980E94440AC49A51
S11316200895C49880EC0E94440AC49A8FE39CE90C
S11316300197F1F700C0000008950E943C0A0E943F
S1131640110B8FE39FE10197F1F700C000008EE0DA
S11316500E94EC0A982F907E903861F01F928F932D
S113166081ED91E09F938F930E940D0E0F900F9048
S11316700F900F9008958FE190E00E94C70A0E9496
S1131680DD0A0E94B2090E9489060E940C040E948D
S113169083040E9428040E944E0A85E08A95F1F78B
S11316A000000E940F07F9CFCF93DF93EB0121973E
S11316B01C161D0614F561507048660F771F680FDD
S11316C0791F17C0FC01219131914081518142174A
S11316D0530734F4DF0112974D935C9331832083D5
S11316E0E617F70781F721976250710968177907A0
S11316F021F01C161D0634F3F6CFDF91CF91089527
S11317000F931F93CF93DF938C01EB010E94540B33
S11317102196CE010AF40196FC01EE7F3297E00F88
S1131720F11F80819181DF91CF911F910F910895D5
S113173097FB072E16F4009407D077FD09D00E947A
S1131740AC0B07FC05D03EF4909581959F4F08950E
S1131750709561957F4F0895AA1BBB1B51E107C08B
S1131760AA1FBB1FA617B70710F0A61BB70B881F2D
S1131770991F5A95A9F780959095BC01CD010895BC
S11317800F931F93CF93DF938230910510F482E07F
S113179090E0E0911202F091130220E030E0A0E02A
S11317A0B0E0309719F140815181028113814817CB
S11317B05907C8F08417950769F4109731F0129609
S11317C00C93129713961C9327C000931202109344
S11317D0130222C02115310519F04217530718F4DA
S11317E09A01BD01EF01DF01F801DBCF21153105BD
S11317F0F9F0281B390B2430310580F48A819B8150
S11318006115710521F0FB019383828304C09093D9
S1131810130280931202FE01329644C0FE01E20FCD
S1131820F31F8193919322503109398328833AC05D
S11318302091100230911102232B41F420910201D6
S11318403091030130931102209310022091000182
S1131850309101012115310541F42DB73EB7409176
S1131860040150910501241B350BE0911002F09105
S11318701102E217F307A0F42E1B3F0B28173907B8
S113188078F0AC014E5F5F4F2417350748F04E0FD8
S11318905F1F50931102409310028193919302C0F1
S11318A0E0E0F0E0CF01DF91CF911F910F91089517
S11318B0CF93DF93009709F481C0FC013297138220
S11318C01282A0911202B0911302109781F4208128
S11318D03181820F931F2091100230911102281739
S11318E0390751F5F0931102E093100267C0ED013E
S11318F020E030E0CE17DF0740F44A815B819E018F
S113190041155105F1F0EA01F5CFD383C28340813B
S11319105181840F951FC817D90759F4888199817B
S1131920840F951F0296918380838A819B81938380
S113193082832115310529F4F0931302E0931202F6
S11319403DC0E901FB83EA8349915991C40FD51F36
S1131950EC17FD0761F480819181840F951F029635
S1131960E90199838883828193819B838A83E0E060
S1131970F0E012968D919C911397009719F0FD0158
S1131980DC01F7CF8D919C9111979D012E5F3F4F04
S1131990820F931F209110023091110228173907EA
S11319A069F4309729F4109213021092120202C0C3
S11319B013821282B0931102A0931002DF91CF918F
S11319C00895A0E0B0E0E7EEFCE00C940B11EC010C
S11319D0009721F4CB010E94C00BB4C0FC01E60FB8
S11319E0F71F9C0122503109E217F30708F4A8C03D
S11319F0D9010D911C91119706171707B0F0053006
S1131A00110508F49BC0C80104978617970708F4CA
S1131A1095C002501109061B170B019311936D9386
S1131A207C93CF010E94580C89C05B01A01AB10AB3
S1131A304C01800E911EA0911202B0911302612CF0
S1131A40712CE12CF12C109709F446C08D919C91D6
S1131A501197A815B905B1F56C0142E0C40ED11C6B
S1131A60CA14DB0478F14C018A189B08640142E033
S1131A70C40ED11C1296BC9012971396AC91B5E08B
S1131A80CB16D10440F0B282A38391828082D90123
S1131A906D937C9309C00E5F1F4F800F911FF90156
S1131AA091838083EB2DFA2FE114F10431F0D701F7
S1131AB01396FC93EE93129741C0F0931302E093B4
S1131AC012023CC06816790608F43C017D011296A6
S1131AD00D90BC91A02DB7CF80911002909111026E
S1131AE088169906E1F466167706C8F48091000119
S1131AF090910101009741F48DB79EB74091040184
S1131B0050910501841B950BE817F907C8F4F0936D
S1131B101102E0931002F901718360830FC0CB01BD
S1131B200E94C00B7C01009759F0A801BE010E94DD
S1131B30AE0DCE010E94580CC70104C0CE0102C0F4
S1131B4080E090E0CDB7DEB7EEE00C942711FB0106
S1131B50DC0105900D920020E1F70895FB01DC0102
S1131B6002C001900D9241505040D8F70895FB01F6
S1131B70DC010D900020E9F7119701900D920020EF
S1131B80E1F708950F931F93CF93DF93009731F4F8
S1131B906115710519F480E090E03AC08B01EC0105
S1131BA06EE070E081E090E00E943410FC01892B2B
S1131BB091F380E883830115110571F0138702877F
S1131BC081E883838091140290911502892B21F47A
S1131BD0F0931502E09314022097C9F0D187C087CF
S1131BE08381826083838091160290911702892BEE
S1131BF071F4F0931702E093160280911802909109
S1131C001902892B21F4F0931902E0931802CF01F1
S1131C10DF91CF911F910F910895A0E0B0E0E3E12F
S1131C20FEE00C941711AE014B5F5F4FFA01619116
S1131C307191AF0180911602909117020E94530E88
S1131C40E2E00C9433110F931F93CF93DF93E09151
S1131C501602F0911702238121FF1BC08C01D0E0F2
S1131C60C0E0F80181918F01609116027091170212
S1131C70DB011896ED91FC911997882331F00995B1
S1131C80892B79F3DFEFCFEFECCF8AE00995892B2D
S1131C9019F08FEF9FEF02C08D2F9C2FDF91CF9112
S1131CA01F910F910895ABE0B0E0E9E5FEE00C94DC
S1131CB007116C017B018A01FC0117821682838162
S1131CC081FFCCC1CE0101963C01F6019381F7015D
S1131CD093FD859193FF81917F01882309F4BAC113
S1131CE0853239F493FD859193FF81917F0185328B
S1131CF029F4B60190E00E946D10E7CF912C212CBD
S1131D00312CFFE1F315D8F08B3279F038F48032BE
S1131D1079F08332A1F4232D20611DC08D3261F04E
S1131D20803369F4232D216016C0832D8260382E00
S1131D30E32DE4603E2E2AC0F32DF8601DC037FC6D
S1131D402DC020ED280F2A3040F08E32B9F436FC35
S1131D5081C1232D2064322E19C036FE06C08AE0CC
S1131D60989E200D1124922E11C0EAE02E9E200D83
S1131D701124222EF32DF0623F2E08C08C3621F45C
S1131D80832D8068382E02C0883641F4F70193FD14
S1131D90859193FF81917F018111B3CF982F9F7D0E
S1131DA09554933028F40C5F1F4F9FE399830DC023
S1131DB0833631F0833771F0833509F059C021C07F
S1131DC0F801808189830E5F1F4F88248394912CAE
S1131DD0530113C02801F2E04F0E511CF801A080FA
S1131DE0B18036FE03C0692D70E002C06FEF7FEF53
S1131DF0C5010E9462104C018201F32DFF773F2E32
S1131E0016C0280122E0420E511CF801A080B180C6
S1131E1036FE03C0692D70E002C06FEF7FEFC5018D
S1131E200E9450104C01F32DF0683F2E820133FCC8
S1131E301BC0822D90E088169906B0F4B60180E2AA
S1131E4090E00E946D102A94F4CFF50137FC85913F
S1131E5037FE81915F01B60190E00E946D10211060
S1131E602A9421E0821A91088114910471F7E8C040
S1131E70843611F0893641F5F80137FE07C06081D8
S1131E807181828193810C5F1F4F08C060817181D1
S1131E90072E000C880B990B0E5F1F4FF32DFF7656
S1131EA03F2E97FF09C090958095709561957F4F5F
S1131EB08F4F9F4FF0683F2E2AE030E0A3010E942D
S1131EC0A910882E861845C0853731F4232D2F7E1E
S1131ED0B22E2AE030E025C0932D997FB92E8F369B
S1131EE0C1F018F4883579F0B5C0803719F0883717
S1131EF021F0B0C0E92FE061BE2EB4FE0DC0FB2D71
S1131F00F460BF2E09C034FE0AC0292F2660B22E09
S1131F1006C028E030E005C020E130E002C020E146
S1131F2032E0F801B7FE07C060817181828193813C
S1131F300C5F1F4F06C06081718180E090E00E5FEE
S1131F401F4FA3010E94A910882E8618FB2DFF772E
S1131F503F2E36FE0DC0232D2E7FA22E891458F459
S1131F6034FE0BC032FC09C0832D8E7EA82E05C022
S1131F70B82CA32C03C0B82C01C0B92CA4FE0FC0EC
S1131F80FE01E80DF11D8081803321F49A2D997EA4
S1131F90A92E09C0A2FE06C0B394B39404C08A2D2E
S1131FA0867809F0B394A3FC11C0A0FE06C0B21455
S1131FB088F4280C922C9B180EC0B21460F4B6015D
S1131FC080E290E00E946D10B394F7CFB21418F43D
S1131FD02B1802C0982C212CA4FE10C0B60180E35B
S1131FE090E00E946D10A2FE17C0A1FC03C088E718
S1131FF090E002C088E590E0B6010CC08A2D867896
S113200059F0A1FE02C08BE201C080E2A7FC8DE280
S1132010B60190E00E946D10891438F4B60180E393
S113202090E00E946D109A94F7CF8A94F301E80D22
S1132030F11D8081B60190E00E946D108110F5CFF2
S1132040222009F442CEB60180E290E00E946D1095
S11320502A94F6CFF6018681978102C08FEF9FEF15
S11320602B96E2E10C9423110F931F93CF93DF93EC
S1132070869F8001879F100D969F100D1124C80123
S11320800E94C00BEC01009729F0A80160E070E009
S11320900E945B10CE01DF91CF911F910F910895A3
S11320A0FC010590615070400110D8F7809590951F
S11320B08E0F9F1F0895DC0101C06D934150504065
S11320C0E0F70895FC016150704001900110D8F7C9
S11320D0809590958E0F9F1F08950F931F93CF9314
S11320E0DF93FB01238121FD03C08FEF9FEF2CC001
S11320F022FF16C046815781248135814217530738
S113210044F4A081B1819D012F5F3F4F318320832F
S11321108C93268137812F5F3F4F3783268314C0EA
S11321208B01EC01FB010084F185E02D0995892BDD
S1132130E1F6D80116968D919C9117970196179602
S11321409C938E931697CE01DF91CF911F910F919F
S11321500895FA01AA27283051F1203181F1E89439
S11321606F936E7F6E5F7F4F8F4F9F4FAF4FB1E086
S11321703ED0B4E03CD0670F781F891F9A1FA11D81
S1132180680F791F8A1F911DA11D6A0F711D811D82
S1132190911DA11D20D009F468943F912AE0269F47
S11321A011243019305D3193DEF6CF010895462FA6
S11321B04770405D4193B3E00FD0C9F7F6CF462F87
S11321C04F70405D4A3318F0495D31FD40524193F0
S11321D002D0A9F7EACFB4E0A695979587957795AD
S11321E06795BA95C9F700976105710508959B0134
S11321F0AC010A2E06945795479537952795BA95BD
S1132200C9F7620F731F841F951FA01D08952F9295
S11322103F924F925F926F927F928F929F92AF9272
S1132220BF92CF92DF92EF92FF920F931F93CF93BF
S1132230DF93CDB7DEB7CA1BDB0B0FB6F894DEBF56
S11322400FBECDBF09942A88398848885F846E847C
S11322507D848C849B84AA84B984C884DF80EE80C6
S1132260FD800C811B81AA81B981CE0FD11D0FB6CF
S1132270F894DEBF0FBECDBFED010895F894FFCFF3
S113228000001A0220000012001008004275747445
S11322906F6E2076616C75653A202564200A0D0006
S11322A032504C4159455200434F4E54524F4C4CBE
S11322B0455200534C49444552004A4F59535449DE
S11322C0434B004D61696E204D656E750031504C75
S11322D04159455200446562756767696E670044F9
S11322E06966666963756C74790043616C696272CE
S11322F061746500486967682053636F7265002DD7
S11323002D2D2D2D2D2D2D2D2D2D2D2D2D2D2D2DF9
S11323102000627574746F6E2070726573736564E7
S11323200064656E6E6520706F7369736A6F6E65A5
S11323306E20656B736973746572657220696B6B6B
S1132340650054696D653A2025642C2564200A0DC6
S1132350004E6F7420696E20636F6E666967206D2E
S11323606F6465206166746572207265736574219B
S11123702076616C75653A202578200A0D00F0
S9030000FC
