S01000004279676765726E322E7372656314
S11300000C948F030C94AC030C94AC030C94AC03CD
S11300100C94AC030C94AC030C94AC030C94AC03A0
S11300200C94AC030C94AC030C94AC030C94AC0390
S11300300C94AC030C94AC030C94AC030C94AC0380
S11300400C94AC030C94AC030C94AC030C94AC0370
S11300500C94AC030C94AC030C94AC030C94AC0360
S11300600C94AC030C94AC030C94AC030C94AC0350
S113007000000000005C00000C000C007C287C28C0
S113008058DC68002410480028542840000C000064
S1130090007884008478000054385400107C1000E8
S11300A080400000101010000040000060100C00A0
S11300B038543800487C40004864580044542C00AC
S11300C01C107C005C5424003854240064140C007C
S11300D068542C0048543800004800008048000050
S11300E0102844002828280044281000045408003C
S11300F038445C00781478007C5428003844280084
S11301007C4438007C5444007C140400384474005B
S11301107C107C00447C440020403C007C106C003B
S11301207C4040007C187C0078103C003844380047
S11301307C1408003844B8007C1468004854240037
S1130140047C04007C407C003C603C007C307C00EF
S11301506C106C000C700C0064544C00007C440067
S11301600C106000447C00000804080080808000BB
S113017000040800304878007C48300030484800CB
S113018030487C00306850001078140090A8780043
S11301907C08700050744000808074007C106800FB
S11301A0447C4000781078007808700030483000B3
S11301B0F82810003048F80078100800505828003B
S11301C0083C4800384078003840380078207800EF
S11301D04830480098A07800486858001078840097
S11301E0007C00008478100008040804000000006B
S11301F0000000005F000000000700070000147FFB
S1130200147F1400242A7F2A120023130864620036
S1130210364955225000000503000000001C22410D
S113022000000041221C0000082A1C2A08000808BB
S11302303E080800005030000000080808080800C4
S11302400060600000002010080402003E5149458F
S11302503E0000427F400000426151494600214176
S1130260454B31001814127F1000274545453900CD
S11302703C4A49493000017109050300364949499E
S11302803600064949291E00003636000000005693
S113029036000000081C2A08080014141414140062
S11302A008082A1C08000201510906003249794154
S11302B03E007E1111117E007F49494936003E41BE
S11302C0414122007F4141221C007F4949494100AC
S11302D07F09090101003E41415132007F080808AD
S11302E07F0000417F4100002040413F01007F0822
S11302F0142241007F40404040007F0204027F00FE
S11303007F0408107F003E4141413E007F090909F6
S113031006003E4151215E007F09192946004649E5
S11303204949310001017F0101003F4040403F0045
S11303301F2040201F007F2018207F006314081412
S1130340630003047804030061514945430000003D
S11303507F41410002040810200041417F00000059
S11303600402010204004040404040000001020435
S113037000002054545478007F48444438003844E2
S113038044442000384444487F00385454541800EE
S1130390087E09010200081454543C007F08040438
S11303A0780000447D4000002040443D0000007F70
S11303B01028440000417F4000007C0418047800A9
S11303C07C08040478003844444438007C14141431
S11303D00800081414187C007C080404080048541D
S11303E054542000043F444020003C4040207C0002
S11303F01C2040201C003C4030403C004428102875
S113040044000C5050503C004464544C44000008D8
S11304103641000000007F00000000413608000063
S113042002010302010000000000000000000006B9
S11304305F5F060000000007070007070000147F45
S11304407F147F7F1400242E6B6B3A1200004666E3
S113045030180C666200307A4F5D377A4800040722
S1130460030000000000001C3E6341000000004146
S1130470633E1C000000082A3E1C1C3E2A08080893
S11304803E3E0808000000A0E060000000000808EC
S113049008080808000000006060000000006030E8
S11304A0180C060301003E7F594D7F3E0000424276
S11304B07F7F40400000627359496F6600002263E9
S11304C049497F360000181C16137F7F10002767E8
S11304D045457D3900003C7E4B497930000003637B
S11304E071190F070000367F49497F360000064F17
S11304F049693F1E000000006C6C0000000000A071
S1130500EC6C000000001824429924428100141469
S11305101414141400008142249942241800020384
S113052051590F0600003E7F415D5D1F1E007C7E19
S113053013137E7C0000417F7F49497F36001C3EB7
S1130540634141632200417F7F41637F1C00417FFF
S11305507F495D416300417F7F491D0103001C3ECB
S11305606341517372007F7F08087F7F0000004160
S11305707F7F41000000307040417F3F0100417F98
S11305807F081C776300417F7F41406070007F7F5C
S1130590060C067F7F007F7F060C187F7F001C3EC1
S11305A06341633E1C00417F7F49090F06001E3FE3
S11305B021717F5E0000417F7F19396F46002667F5
S11305C04D597B32000003417F7F410300007F7F50
S11305D040407F7F00001F3F60603F1F00007F7F1F
S11305E03018307F7F0063771C081C776300074F47
S11305F078784F0700006773594D47637100007F97
S11306007F41410000000103060C183060000041E6
S1130610417F7F000000080C0603060C0800808060
S11306208080808080800000030704000000207424
S113063054543C784000413F7F44447C3800387C2B
S113064044446C280000307848493F7F4000387C9F
S113065054545C180000487E7F490302000098BC93
S1130660A4A4F87C0400417F7F08047C7800004443
S11306707D7D4000000040C484FD7D000000417F7A
S11306807F10386C440000417F7F400000007C7C78
S11306900C180C7C78007C7C04047C780000387C8A
S11306A044447C38000084FCF8A4243C1800183C22
S11306B024A4F8FC8400447C78441C180000485CA2
S11306C054547424000000043E7F442400003C7C05
S11306D040403C7C40001C3C60603C1C00003C7C76
S11306E06030607C3C00446C3810386C44009CBC26
S11306F0A0A0FC7C00004C64745C4C6400000808FE
S11307003E7741410000000000777700000041413E
S1130710773E0808000002030103020301001124CC
S11307201FBECFEFD4E0DEBFCDBF11E0A0E0B1E04B
S1130730EEE4F1E102C005900D92A436B107D9F7B9
S113074021E0A4E6B1E001C01D92AE36B207E1F7A4
S11307500E948F050C94A5080C940000E0910401FC
S1130760F091050190E29083E0910401F09105017C
S113077080830895883048F086E091E09F938F93BA
S11307800E94C7050F900F90089590EB980FE09189
S11307900401F0910501908390E0909365018093AA
S11307A06401089588234CF486E091E09F938F932D
S11307B00E94C7050F900F900895282F2F70982F2F
S11307C092959F70905FE0910401F09105019083F0
S11307D0E0910401F0910501208390E0909367017A
S11307E0809366010895CF93C62F0E94BA038C2F7D
S11307F00E94D203CF91089560E080E00E94F30349
S113080080E00E94AE0380E090E0E0910201F0916C
S11308100301E80FF91F10820196811524E0920765
S1130820A1F760E084E00E94F30380E090E0E091AF
S11308300201F0910301E80FF91F1082019681155E
S113084024E09207A1F7089580526630710509F4F7
S11308503BC06830710529F06430710509F080C02F
S11308605BC02091000130910101121613060CF0B7
S113087077C090E0880F991F880F991F880F991FE0
S113088020E030E0A4E6B1E0F901E80FF91FEA5DE9
S1130890FB4F45915491E0910201F0910301408393
S11308A012964D915C9113974F5F5F4F13965C9333
S11308B04E9312972F5F3F4F4091000150910101D9
S11308C0241735070CF3089590E09C01220F331F81
S11308D0820F931F880F991F20E030E0A4E6B1E057
S11308E0F901E80FF91FE451FE4F45915491E0914D
S11308F00201F0910301408312964D915C9113978C
S11309004F5F5F4F13965C934E9312972F5F3F4F49
S11309102630310529F7089590E0880F991F880F34
S1130920991F20E030E0A4E6B1E0F901E80FF91FD7
S1130930E059FF4F45915491E0910201F091030178
S1130940408312964D915C9113974F5F5F4F1396BE
S11309505C934E9312972F5F3F4F2430310529F754
S11309600895CF92DF92EF92FF920F931F93CF934C
S1130970DF93EC017B018C01C12CD12C09C0B701A0
S1130980F80181918F010E942404FFEFCF1ADF0A3E
S1130990FE0101900020E9F73197EC1BFD0BCE1608
S11309A0DF0668F3DF91CF911F910F91FF90EF90D5
S11309B0DF90CF9008950F931F93CF93DF93EC01B3
S11309C08B01FC0101900020E9F73197E81BF90B3A
S11309D06E9F90016F9F300D7E9F300D11243695D0
S11309E027958FE3821B0E94D203B801CE010E9497
S11309F0B104DF91CF911F910F910895E09104010B
S1130A00F09105018EEA8083E0910401F0910501E3
S1130A1081EA8083E0910401F09105018AED8083ED
S1130A20E0910401F091050182E18083E0910401E9
S1130A30F091050188EC8083E0910401F0910501B7
S1130A4088EA8083E0910401F09105018FE38083BB
S1130A50E0910401F091050185ED8083E0910401AA
S1130A60F091050180E88083E0910401F091050193
S1130A7081E88083E0910401F091050180E58083A1
S1130A80E0910401F091050189ED8083E091040176
S1130A90F091050181E28083E0910401F091050168
S1130AA080E28083E0910401F091050182E080837B
S1130AB0E0910401F09105018BED8083E091040144
S1130AC0F091050180E38083E0910401F091050138
S1130AD08DEA8083E0910401F09105011082E09198
S1130AE00401F091050184EA8083E0910401F0910E
S1130AF0050186EA8083E0910401F09105018FEA03
S1130B0080830E94FC0360E080E00E94F303089568
S1130B1085B7806885BF80B7806280BF08950E94D2
S1130B2088050E94FE0468E070E087E291E00E947C
S1130B30DB0482E00E94BA0366E070E080E391E0A7
S1130B400E94DB0483E00E94BA0366E070E089E35C
S1130B5091E00E94DB0484E00E94BA0366E070E046
S1130B6085E491E00E94DB0485E00E94BA0366E01C
S1130B7070E08FE491E00E94DB0486E00E94BA03F7
S1130B8066E070E08AE591E00E94DB04FFCFA0E01C
S1130B90B0E0EDECF5E00C947E08AE014B5F5F4FE6
S1130BA0FA0161917191AF0180916A0190916B0199
S1130BB00E94DD05E2E00C949A08ABE0B0E0E3EEBD
S1130BC0F5E00C946E086C017B018A01FC0117822C
S1130BD01682838181FFCCC1CE0101963C01F601CE
S1130BE09381F70193FD859193FF81917F01882380
S1130BF009F4BAC1853239F493FD859193FF81914B
S1130C007F01853229F4B60190E00E94D407E7CF32
S1130C10912C212C312CFFE1F315D8F08B3279F093
S1130C2038F4803279F08332A1F4232D20611DC081
S1130C308D3261F0803369F4232D216016C0832D39
S1130C408260382EE32DE4603E2E2AC0F32DF86036
S1130C501DC037FC2DC020ED280F2A3040F08E3205
S1130C60B9F436FC81C1232D2064322E19C036FE1E
S1130C7006C08AE0989E200D1124922E11C0EAE04D
S1130C802E9E200D1124222EF32DF0623F2E08C03B
S1130C908C3621F4832D8068382E02C0883641F4C6
S1130CA0F70193FD859193FF81917F018111B3CF6A
S1130CB0982F9F7D9554933028F40C5F1F4F9FE32A
S1130CC099830DC0833631F0833771F0833509F091
S1130CD059C021C0F801808189830E5F1F4F882489
S1130CE08394912C530113C02801F2E04F0E511C40
S1130CF0F801A080B18036FE03C0692D70E002C007
S1130D006FEF7FEFC5010E94C9074C018201F32DEB
S1130D10FF773F2E16C0280122E0420E511CF80135
S1130D20A080B18036FE03C0692D70E002C06FEF71
S1130D307FEFC5010E94BE074C01F32DF0683F2EE2
S1130D40820133FC1BC0822D90E088169906B0F412
S1130D50B60180E290E00E94D4072A94F4CFF50112
S1130D6037FC859137FE81915F01B60190E00E94C6
S1130D70D40721102A9421E0821A91088114910445
S1130D8071F7E8C0843611F0893641F5F80137FE71
S1130D9007C060817181828193810C5F1F4F08C0FD
S1130DA060817181072E000C880B990B0E5F1F4F19
S1130DB0F32DFF763F2E97FF09C09095809570958F
S1130DC061957F4F8F4F9F4FF0683F2E2AE030E0B0
S1130DD0A3010E941008882E861845C0853731F477
S1130DE0232D2F7EB22E2AE030E025C0932D997F4B
S1130DF0B92E8F36C1F018F4883579F0B5C0803734
S1130E0019F0883721F0B0C0E92FE061BE2EB4FE9E
S1130E100DC0FB2DF460BF2E09C034FE0AC0292F7B
S1130E202660B22E06C028E030E005C020E130E0A4
S1130E3002C020E132E0F801B7FE07C06081718191
S1130E40828193810C5F1F4F06C06081718180E0B5
S1130E5090E00E5F1F4FA3010E941008882E861891
S1130E60FB2DFF773F2E36FE0DC0232D2E7FA22EA5
S1130E70891458F434FE0BC032FC09C0832D8E7ED5
S1130E80A82E05C0B82CA32C03C0B82C01C0B92CC3
S1130E90A4FE0FC0FE01E80DF11D8081803321F412
S1130EA09A2D997EA92E09C0A2FE06C0B394B394CC
S1130EB004C08A2D867809F0B394A3FC11C0A0FE67
S1130EC006C0B21488F4280C922C9B180EC0B214DD
S1130ED060F4B60180E290E00E94D407B394F7CFA7
S1130EE0B21418F42B1802C0982C212CA4FE10C0A4
S1130EF0B60180E390E00E94D407A2FE17C0A1FCD3
S1130F0003C088E790E002C088E590E0B6010CC019
S1130F108A2D867859F0A1FE02C08BE201C080E2DE
S1130F20A7FC8DE2B60190E00E94D407891438F43E
S1130F30B60180E390E00E94D4079A94F7CF8A9494
S1130F40F301E80DF11D8081B60190E00E94D40701
S1130F508110F5CF222009F442CEB60180E290E060
S1130F600E94D4072A94F6CFF6018681978102C0A5
S1130F708FEF9FEF2B96E2E10C948A08FC01059019
S1130F80615070400110D8F7809590958E0F9F1F87
S1130F900895FC016150704001900110D8F78095CC
S1130FA090958E0F9F1F08950F931F93CF93DF93F8
S1130FB0FB01238121FD03C08FEF9FEF2CC022FF93
S1130FC016C046815781248135814217530744F462
S1130FD0A081B1819D012F5F3F4F318320838C938A
S1130FE0268137812F5F3F4F3783268314C08B01BF
S1130FF0EC01FB010084F185E02D0995892BE1F6D4
S1131000D80116968D919C911797019617969C93EB
S11310108E931697CE01DF91CF911F910F91089572
S1131020FA01AA27283051F1203181F1E8946F9315
S11310306E7F6E5F7F4F8F4F9F4FAF4FB1E03ED0BB
S1131040B4E03CD0670F781F891F9A1FA11D680F59
S1131050791F8A1F911DA11D6A0F711D811D911D8C
S1131060A11D20D009F468943F912AE0269F112401
S11310703019305D3193DEF6CF010895462F477065
S1131080405D4193B3E00FD0C9F7F6CF462F4F70C0
S1131090405D4A3318F0495D31FD4052419302D01E
S11310A0A9F7EACFB4E0A6959795879577956795C4
S11310B0BA95C9F700976105710508959B01AC01C4
S11310C00A2E06945795479537952795BA95C9F7EB
S11310D0620F731F841F951FA01D08952F923F92C6
S11310E04F925F926F927F928F929F92AF92BF9234
S11310F0CF92DF92EF92FF920F931F93CF93DF93E0
S1131100CDB7DEB7CA1BDB0B0FB6F894DEBF0FBE3C
S1131110CDBF09942A88398848885F846E847D8489
S11311208C849B84AA84B984C884DF80EE80FD808B
S11311300C811B81AA81B981CE0FD11D0FB6F89401
S1111140DEBF0FBECDBFED010895F894FFCFC2
S113114E08000012001064656E6E6520706F73697E
S113115E736A6F6E656E20656B7369737465726501
S113116E7220696B6B650050494E47504F4E4700D5
S113117E4E45572047414D45003E48494748534345
S113118E4F52453C0043414C494252415445004460
S113119E4946464943554C545900444542554747E0
S10711AE494E47005B
S9030000FC
