S01000004279676765726E322E7372656314
S11300000C948F030C94AC030C94AC030C94AC03CD
S11300100C94AC030C94AC030C94AC030C94AC03A0
S11300200C94AC030C94AC030C94AC030C94AC0390
S11300300C94AC030C94AC030C94AC030C94AC0380
S11300400C94AC030C94AC030C94AC030C94AC0370
S11300500C94AC030C94AC030C94AC030C94AC0360
S11300600C94AC030C94AC030C94AC030C94AC0350
S113007000000000005C00000C000C007C287C28C0
S113008058DC68002410480028542840000C000064
S1130090007884008478000054385400107C1000E8
S11300A080400000101010000040000060100C00A0
S11300B038543800487C40004864580044542C00AC
S11300C01C107C005C5424003854240064140C007C
S11300D068542C0048543800004800008048000050
S11300E0102844002828280044281000045408003C
S11300F038445C00781478007C5428003844280084
S11301007C4438007C5444007C140400384474005B
S11301107C107C00447C440020403C007C106C003B
S11301207C4040007C187C0078103C003844380047
S11301307C1408003844B8007C1468004854240037
S1130140047C04007C407C003C603C007C307C00EF
S11301506C106C000C700C0064544C00007C440067
S11301600C106000447C00000804080080808000BB
S113017000040800304878007C48300030484800CB
S113018030487C00306850001078140090A8780043
S11301907C08700050744000808074007C106800FB
S11301A0447C4000781078007808700030483000B3
S11301B0F82810003048F80078100800505828003B
S11301C0083C4800384078003840380078207800EF
S11301D04830480098A07800486858001078840097
S11301E0007C00008478100008040804000000006B
S11301F0000000005F000000000700070000147FFB
S1130200147F1400242A7F2A120023130864620036
S1130210364955225000000503000000001C22410D
S113022000000041221C0000082A1C2A08000808BB
S11302303E080800005030000000080808080800C4
S11302400060600000002010080402003E5149458F
S11302503E0000427F400000426151494600214176
S1130260454B31001814127F1000274545453900CD
S11302703C4A49493000017109050300364949499E
S11302803600064949291E00003636000000005693
S113029036000000081C2A08080014141414140062
S11302A008082A1C08000201510906003249794154
S11302B03E007E1111117E007F49494936003E41BE
S11302C0414122007F4141221C007F4949494100AC
S11302D07F09090101003E41415132007F080808AD
S11302E07F0000417F4100002040413F01007F0822
S11302F0142241007F40404040007F0204027F00FE
S11303007F0408107F003E4141413E007F090909F6
S113031006003E4151215E007F09192946004649E5
S11303204949310001017F0101003F4040403F0045
S11303301F2040201F007F2018207F006314081412
S1130340630003047804030061514945430000003D
S11303507F41410002040810200041417F00000059
S11303600402010204004040404040000001020435
S113037000002054545478007F48444438003844E2
S113038044442000384444487F00385454541800EE
S1130390087E09010200081454543C007F08040438
S11303A0780000447D4000002040443D0000007F70
S11303B01028440000417F4000007C0418047800A9
S11303C07C08040478003844444438007C14141431
S11303D00800081414187C007C080404080048541D
S11303E054542000043F444020003C4040207C0002
S11303F01C2040201C003C4030403C004428102875
S113040044000C5050503C004464544C44000008D8
S11304103641000000007F00000000413608000063
S113042002010302010000000000000000000006B9
S11304305F5F060000000007070007070000147F45
S11304407F147F7F1400242E6B6B3A1200004666E3
S113045030180C666200307A4F5D377A4800040722
S1130460030000000000001C3E6341000000004146
S1130470633E1C000000082A3E1C1C3E2A08080893
S11304803E3E0808000000A0E060000000000808EC
S113049008080808000000006060000000006030E8
S11304A0180C060301003E7F594D7F3E0000424276
S11304B07F7F40400000627359496F6600002263E9
S11304C049497F360000181C16137F7F10002767E8
S11304D045457D3900003C7E4B497930000003637B
S11304E071190F070000367F49497F360000064F17
S11304F049693F1E000000006C6C0000000000A071
S1130500EC6C000000001824429924428100141469
S11305101414141400008142249942241800020384
S113052051590F0600003E7F415D5D1F1E007C7E19
S113053013137E7C0000417F7F49497F36001C3EB7
S1130540634141632200417F7F41637F1C00417FFF
S11305507F495D416300417F7F491D0103001C3ECB
S11305606341517372007F7F08087F7F0000004160
S11305707F7F41000000307040417F3F0100417F98
S11305807F081C776300417F7F41406070007F7F5C
S1130590060C067F7F007F7F060C187F7F001C3EC1
S11305A06341633E1C00417F7F49090F06001E3FE3
S11305B021717F5E0000417F7F19396F46002667F5
S11305C04D597B32000003417F7F410300007F7F50
S11305D040407F7F00001F3F60603F1F00007F7F1F
S11305E03018307F7F0063771C081C776300074F47
S11305F078784F0700006773594D47637100007F97
S11306007F41410000000103060C183060000041E6
S1130610417F7F000000080C0603060C0800808060
S11306208080808080800000030704000000207424
S113063054543C784000413F7F44447C3800387C2B
S113064044446C280000307848493F7F4000387C9F
S113065054545C180000487E7F490302000098BC93
S1130660A4A4F87C0400417F7F08047C7800004443
S11306707D7D4000000040C484FD7D000000417F7A
S11306807F10386C440000417F7F400000007C7C78
S11306900C180C7C78007C7C04047C780000387C8A
S11306A044447C38000084FCF8A4243C1800183C22
S11306B024A4F8FC8400447C78441C180000485CA2
S11306C054547424000000043E7F442400003C7C05
S11306D040403C7C40001C3C60603C1C00003C7C76
S11306E06030607C3C00446C3810386C44009CBC26
S11306F0A0A0FC7C00004C64745C4C6400000808FE
S11307003E7741410000000000777700000041413E
S1130710773E0808000002030103020301001124CC
S11307201FBECFEFD4E0DEBFCDBF11E0A0E0B1E04B
S1130730EEE7FCE102C005900D92A03BB107D9F7AA
S113074021E0A0EBB1E001C01D92A43CB207E1F7A7
S11307500E94ED080C943D0E0C9400008C9AF894C1
S1130760EBE8F0E0808180648083EAE8F0E0808157
S11307708160808380818860808381E090E09093B1
S1130780870080938600789408950E94AE030895AC
S1130790CF93C82F0E94DE0860E074E08C2F80683D
S11307A00E94E50880E18A95F1F700C080E094E0BA
S11307B00E94E90890E19A95F1F700C090E0CF918A
S11307C00895CF92DF92EF92FF920F931F93CF93EE
S11307D0DF93CDB7DEB7C059D1400FB6F894DEBF72
S11307E00FBECDBF8E0107531F4FCE0101967C0172
S11307F06E019FE6C91A9EEFD90A81E090E00E943B
S1130800C803F801819391938F0180E090E00E94E6
S1130810C803F701819391937F010C151D0569F7B6
S113082064E670E0CE0187539F4F0E942F098093A6
S1130830B50164E670E0CE0101960E942F09809311
S1130840B401C057DE4F0FB6F894DEBF0FBECDBF64
S1130850DF91CF911F910F91FF90EF90DF90CF9098
S113086008951F93CF93DF9381E090E00E94C80323
S1130870EC0180E090E00E94C8039C01482F809125
S1130880B5018C17A8F48091B5015091B501DD270D
S1130890C81BD10964E66C9FC0016D9F900D1124A3
S11308A06FEF70E0651B71090E944709FB0118C0D6
S11308B08091B501C81790F48091B5016091B5019C
S11308C0DD27C81BD10954E65C9FC0015D9F900DD4
S11308D0112470E00E944709FB0102C0E0E0F0E04F
S11308E08091B4018417A8F48091B4014091B401BB
S11308F03327281B310954E6529FC001539F900DA2
S113090011246FEF70E0641B71090E9447099B0179
S113091018C08091B401481790F48091B40160919B
S1130920B4013327281B310944E6429FC001439F89
S1130930900D112470E00E9447099B0102C020E041
S113094030E0BF01C901DF91CF911F9108950E944A
S113095031046E3CEFEF7E0784F0633371057CF461
S11309608E3C2FEF92076CF0C3976CF46E5C7F4F54
S11309706536710550F080E0089580E0089581E0C7
S1130980089582E0089583E0089584E008950E9424
S1130990720768E070E08CE091E00E9431080895ED
S11309A00E94720768E070E085E191E00E943108DE
S11309B008950E94720768E070E08FE191E00E9460
S11309C0310808950E94720768E070E08AE291E0BD
S11309D00E94310808950E94720768E070E084E381
S11309E091E00E9431080895AF92BF92CF92DF92B6
S11309F0EF92FF920F931F93CF93DF938C015B01D0
S1130A006A0179018CE090E00E946F09EC0119837E
S1130A1008831D821C821F821E82B986A886DB86FB
S1130A20CA86FB82EA82F801668177816F5F7F4F15
S1130A30660F771F848195810E94900AF80195833F
S1130A40848326813781A901440F551FFC01E40FDB
S1130A50F51FD183C0832F5F3F4FF801378326836F
S1130A60CE01DF91CF911F910F91FF90EF90DF9016
S1130A70CF90BF90AF900895FF920F931F93CF93A1
S1130A80DF938CE090E00E946F098C018FE391E08A
S1130A90D80119969C938E9318971B961C921E92BC
S1130AA01A9717961C921E92169711961C921E92D4
S1130AB013961C921E92129727EC34E049E451E0FD
S1130AC06FE471E0C8010E94F4042BEE34E043E5C6
S1130AD051E06AE571E0C8010E94F40422EE34E0BA
S1130AE04FE551E067E671E0C8010E94F40429ED86
S1130AF034E04DE651E064E771E0C8010E94F4047B
S1130B0020ED34E049E751E06FE771E0C8010E944D
S1130B10F40468E070E083E891E00E943108F80191
S1130B2086819781181619062CF56894FF24F1F82C
S1130B30C0E0D0E08F2D0E94EF0660910A01709111
S1130B400B01CE01880F991FD8011496ED91FC91E9
S1130B501597E80FF91F0190F081E02D80859185AC
S1130B600E9431082196F394F80186819781C81771
S1130B70D90704F382E00E94EF0660910A017091A4
S1130B800B01D8011496ED91FC9115970190F08119
S1130B90E02D828593850E9431081093B101009362
S1130BA0B001DF91CF911F910F91FF900895CF93E2
S1130BB0DF930E94A704813009F4DFC008F4C3C0A6
S1130BC0823009F45EC0833009F0FAC08091B2012A
S1130BD09091B301181619060CF0F2C08E5F0E94B2
S1130BE0EF06C2EBD1E088818E5F0E9436076091E8
S1130BF00A0170910B01A091B001B091B101E09193
S1130C00B201F091B301EE0FFF1F14968D919C91E8
S1130C101597E80FF91F0190F081E02D80859185EB
S1130C200E94310888818F5F0E94EF0688818F5F60
S1130C300E94360760910A0170910B01A091B001E6
S1130C40B091B101E091B201F091B301E150F048EB
S1130C50EE0FFF1F14968D919C911597E80FF91FC5
S1130C600190F081E02D828593850E943108809166
S1130C70B2019091B30101979093B3018093B201B3
S1130C809FC08091B2019091B301E091B001F091C5
S1130C90B1012681378121503109821793070CF065
S1130CA08FC08E5F0E94EF06C2EBD1E088818E5F19
S1130CB00E94360760910A0170910B01A091B00166
S1130CC0B091B101E091B201F091B301EE0FFF1FB9
S1130CD014968D919C911597E80FF91F0190F0815E
S1130CE0E02D808591850E94310888818D5F0E9466
S1130CF0EF0688818D5F0E94360760910A0170912A
S1130D000B01A091B001B091B101E091B201F09159
S1130D10B3013196EE0FFF1F14968D919C91159798
S1130D20E80FF91F0190F081E02D828593850E94E0
S1130D3031088091B2019091B30101969093B3016F
S1130D408093B2013DC0E091B001F091B101A08166
S1130D50B1811097A9F1B093B101A093B0011092A1
S1130D60B3011092B2011296ED91FC91139718966B
S1130D708D919C911997099523C0E091B001F09150
S1130D80B101848195810097D9F0E091B201F0918D
S1130D90B301EE0FFF1FE80FF91FA081B181B093DB
S1130DA0B101A093B0011092B3011092B201129656
S1130DB0ED91FC91139718968D919C911997099533
S1130DC0DF91CF910895E0910801F091090190E23B
S1130DD09083E0910801F09109018083089588309F
S1130DE048F08CE891E09F938F930E945F0B0F90E3
S1130DF00F90089590EB980FE0910801F09109018C
S1130E00908390E09093B7018093B601089588236E
S1130E104CF48CE891E09F938F930E945F0B0F90AA
S1130E200F900895282F2F70982F92959F70905FA0
S1130E30E0910801F09109019083E0910801F0919B
S1130E400901208390E09093B9018093B80108953B
S1130E50CF93C62F0E94EF068C2F0E940707CF91D5
S1130E60089560E080E00E942807089560E00E94F1
S1130E70280780E090E0E0910601F0910701E80F77
S1130E80F91F1082019680389105A9F7089560E052
S1130E9080E00E94280780E00E94E30680E090E062
S1130EA0E0910601F0910701E80FF91F1082019605
S1130EB0811524E09207A1F760E084E00E942807EE
S1130EC080E090E0E0910601F0910701E80FF91F3E
S1130ED010820196811524E09207A1F782E00E9416
S1130EE0E30608950E9431070E94470782E00E94AA
S1130EF0E306089580526630710509F43BC06830FA
S1130F00710529F06430710509F080C05BC020913F
S1130F100A0130910B01121613060CF077C090E011
S1130F20880F991F880F991F880F991F20E030E0C0
S1130F30A6EBB1E0F901E80FF91FEA5DFB4F45911B
S1130F405491E0910601F0910701408312964D916E
S1130F505C9113974F5F5F4F13965C934E93129778
S1130F602F5F3F4F40910A0150910B012417350721
S1130F700CF3089590E09C01220F331F820F931FFE
S1130F80880F991F20E030E0A6EBB1E0F901E80FEB
S1130F90F91FE451FE4F45915491E0910601F091FF
S1130FA00701408312964D915C9113974F5F5F4FF9
S1130FB013965C934E9312972F5F3F4F2630310563
S1130FC029F7089590E0880F991F880F991F20E052
S1130FD030E0A6EBB1E0F901E80FF91FE059FF4F4B
S1130FE045915491E0910601F091070140831296D6
S1130FF04D915C9113974F5F5F4F13965C934E93A3
S113100012972F5F3F4F2430310529F70895CF926F
S1131010DF92EF92FF920F931F93CF93DF93EC0134
S11310207B018C01C12CD12C09C0B701F80181913D
S11310308F010E947A07FFEFCF1ADF0AFE010190A9
S11310400020E9F73197EC1BFD0BCE16DF0668F3A1
S1131050DF91CF911F910F91FF90EF90DF90CF9090
S113106008950F931F93CF93DF93EC018B01FC0141
S113107001900020E9F73197E81BF90B6E9F90016E
S11310806F9F300D7E9F300D1124369527958FE389
S1131090821B0E940707B801CE010E940708DF9156
S11310A0CF911F910F910895E0910801F0910901EA
S11310B08EEA8083E0910801F091090181EA80833E
S11310C0E0910801F09109018AED8083E091080123
S11310D0F091090182E18083E0910801F091090116
S11310E088EC8083E0910801F091090188EA80830B
S11310F0E0910801F09109018FE38083E0910801F8
S1131100F091090185ED8083E0910801F0910901D6
S113111080E88083E0910801F091090181E88083EF
S1131120E0910801F091090180E58083E0910801D4
S1131130F091090189ED8083E0910801F0910901A2
S113114081E28083E0910801F091090180E28083CB
S1131150E0910801F091090182E08083E0910801A7
S1131160F09109018BED8083E0910801F091090170
S113117080E38083E0910801F09109018DEA808386
S1131180E0910801F09109011082E0910801F091C9
S1131190090184EA8083E0910801F091090186EA5B
S11311A08083E0910801F09109018FEA80830E9415
S11311B0470760E080E00E942807089585B78068AB
S11311C085BF80B7806280BF0895FB01F05F808394
S11311D00895905FFC01808108950E94DE080E94BA
S11311E054080E943C050E94C5030E94E1030E942A
S11311F0D7052FEF81EE94E0215080409040E1F735
S113120000C00000F4CFCF93DF93EB0121971C16AD
S11312101D0614F561507048660F771F680F791F1B
S113122017C0FC012191319140815181421753072C
S113123034F4DF0112974D935C9331832083E617D6
S1131240F70781F72197625071096817790721F030
S11312501C161D0634F3F6CFDF91CF9108950F933A
S11312601F93CF93DF938C01EB010E940309219616
S1131270CE010AF40196FC01EE7F3297E00FF11FD4
S113128080819181DF91CF911F910F91089597FBF8
S1131290072E16F4009407D077FD09D00E945B094D
S11312A007FC05D03EF4909581959F4F0895709565
S11312B061957F4F0895AA1BBB1B51E107C0AA1F6C
S11312C0BB1FA617B70710F0A61BB70B881F991FE3
S11312D05A95A9F780959095BC01CD0108950F9377
S11312E01F93CF93DF938230910510F482E090E056
S11312F0E091BC01F091BD0120E030E0A0E0B0E05D
S1131300309719F14081518102811381481759079F
S1131310C8F08417950769F4109731F012960C936E
S1131320129713961C9327C00093BC011093BD0120
S113133022C02115310519F04217530718F49A01F8
S1131340BD01EF01DF01F801DBCF21153105F9F013
S1131350281B390B2430310580F48A819B81611567
S1131360710521F0FB019383828304C09093BD0136
S11313708093BC01FE01329644C0FE01E20FF31FCC
S11313808193919322503109398328833AC0209163
S1131390BA013091BB01232B41F420910201309119
S11313A003013093BB012093BA01209100013091D5
S11313B001012115310541F42DB73EB740910401D7
S11313C050910501241B350BE091BA01F091BB014A
S11313D0E217F307A0F42E1B3F0B2817390778F008
S11313E0AC014E5F5F4F2417350748F04E0F5F1F67
S11313F05093BB014093BA018193919302C0E0E002
S1131400F0E0CF01DF91CF911F910F910895CF9319
S1131410DF93009709F481C0FC0132971382128292
S1131420A091BC01B091BD01109781F4208131815C
S1131430820F931F2091BA013091BB0128173907FD
S113144051F5F093BB01E093BA0167C0ED0120E0D0
S113145030E0CE17DF0740F44A815B819E014115DD
S11314605105F1F0EA01F5CFD383C2834081518164
S1131470840F951FC817D90759F488819981840F5F
S1131480951F0296918380838A819B8193838283B3
S11314902115310529F4F093BD01E093BC013DC051
S11314A0E901FB83EA8349915991C40FD51FEC17D5
S11314B0FD0761F480819181840F951F0296E901F3
S11314C099838883828193819B838A83E0E0F0E01F
S11314D012968D919C911397009719F0FD01DC01F0
S11314E0F7CF8D919C9111979D012E5F3F4F820FF5
S11314F0931F2091BA013091BB012817390769F471
S1131500309729F41092BD011092BC0102C01382DD
S11315101282B093BB01A093BA01DF91CF910895D9
S1131520A0E0B0E0E6E9FAE00C940A0EEC010097C2
S113153021F4CB010E946F09B4C0FC01E60FF71F30
S11315409C0122503109E217F30708F4A8C0D9011D
S11315500D911C91119706171707B0F0053011056E
S113156008F49BC0C80104978617970708F495C030
S113157002501109061B170B019311936D937C9371
S1131580CF010E94070A89C05B01A01AB10A4C016D
S1131590800E911EA091BC01B091BD01612C712CF3
S11315A0E12CF12C109709F446C08D919C91119770
S11315B0A815B905B1F56C0142E0C40ED11CCA14DA
S11315C0DB0478F14C018A189B08640142E0C40EE4
S11315D0D11C1296BC9012971396AC91B5E0CB1621
S11315E0D10440F0B282A38391828082D9016D93A9
S11315F07C9309C00E5F1F4F800F911FF9019183E7
S11316008083EB2DFA2FE114F10431F0D701139606
S1131610FC93EE93129741C0F093BD01E093BC019B
S11316203CC06816790608F43C017D0112960D90C1
S1131630BC91A02DB7CF8091BA019091BB018816BF
S11316409906E1F466167706C8F48091000190913A
S11316500101009741F48DB79EB740910401509168
S11316600501841B950BE817F907C8F4F093BB0137
S1131670E093BA01F901718360830FC0CB010E942A
S11316806F097C01009759F0A801BE010E94560B16
S1131690CE010E94070AC70104C0CE0102C080E047
S11316A090E0CDB7DEB7EEE00C94260EFB01DC0132
S11316B002C001900D9241505040D8F70895A0E027
S11316C0B0E0E5E6FBE00C94160EAE014B5F5F4F15
S11316D0FA0161917191AF018091C0019091C101B2
S11316E00E94750BE2E00C94320EABE0B0E0EBE745
S11316F0FBE00C94060E6C017B018A01FC0117824D
S11317001682838181FFCCC1CE0101963C01F60192
S11317109381F70193FD859193FF81917F01882344
S113172009F4BAC1853239F493FD859193FF81910F
S11317307F01853229F4B60190E00E946C0DE7CF59
S1131740912C212C312CFFE1F315D8F08B3279F058
S113175038F4803279F08332A1F4232D20611DC046
S11317608D3261F0803369F4232D216016C0832DFE
S11317708260382EE32DE4603E2E2AC0F32DF860FB
S11317801DC037FC2DC020ED280F2A3040F08E32CA
S1131790B9F436FC81C1232D2064322E19C036FEE3
S11317A006C08AE0989E200D1124922E11C0EAE012
S11317B02E9E200D1124222EF32DF0623F2E08C000
S11317C08C3621F4832D8068382E02C0883641F48B
S11317D0F70193FD859193FF81917F018111B3CF2F
S11317E0982F9F7D9554933028F40C5F1F4F9FE3EF
S11317F099830DC0833631F0833771F0833509F056
S113180059C021C0F801808189830E5F1F4F88244D
S11318108394912C530113C02801F2E04F0E511C04
S1131820F801A080B18036FE03C0692D70E002C0CB
S11318306FEF7FEFC5010E94610D4C018201F32D12
S1131840FF773F2E16C0280122E0420E511CF801FA
S1131850A080B18036FE03C0692D70E002C06FEF36
S11318607FEFC5010E94560D4C01F32DF0683F2E09
S1131870820133FC1BC0822D90E088169906B0F4D7
S1131880B60180E290E00E946C0D2A94F4CFF50139
S113189037FC859137FE81915F01B60190E00E948B
S11318A06C0D21102A9421E0821A9108811491046C
S11318B071F7E8C0843611F0893641F5F80137FE36
S11318C007C060817181828193810C5F1F4F08C0C2
S11318D060817181072E000C880B990B0E5F1F4FDE
S11318E0F32DFF763F2E97FF09C090958095709554
S11318F061957F4F8F4F9F4FF0683F2E2AE030E075
S1131900A3010E94A80D882E861845C0853731F49E
S1131910232D2F7EB22E2AE030E025C0932D997F0F
S1131920B92E8F36C1F018F4883579F0B5C08037F8
S113193019F0883721F0B0C0E92FE061BE2EB4FE63
S11319400DC0FB2DF460BF2E09C034FE0AC0292F40
S11319502660B22E06C028E030E005C020E130E069
S113196002C020E132E0F801B7FE07C06081718156
S1131970828193810C5F1F4F06C06081718180E07A
S113198090E00E5F1F4FA3010E94A80D882E8618B9
S1131990FB2DFF773F2E36FE0DC0232D2E7FA22E6A
S11319A0891458F434FE0BC032FC09C0832D8E7E9A
S11319B0A82E05C0B82CA32C03C0B82C01C0B92C88
S11319C0A4FE0FC0FE01E80DF11D8081803321F4D7
S11319D09A2D997EA92E09C0A2FE06C0B394B39491
S11319E004C08A2D867809F0B394A3FC11C0A0FE2C
S11319F006C0B21488F4280C922C9B180EC0B214A2
S1131A0060F4B60180E290E00E946C0DB394F7CFCD
S1131A10B21418F42B1802C0982C212CA4FE10C068
S1131A20B60180E390E00E946C0DA2FE17C0A1FCF9
S1131A3003C088E790E002C088E590E0B6010CC0DE
S1131A408A2D867859F0A1FE02C08BE201C080E2A3
S1131A50A7FC8DE2B60190E00E946C0D891438F465
S1131A60B60180E390E00E946C0D9A94F7CF8A94BB
S1131A70F301E80DF11D8081B60190E00E946C0D28
S1131A808110F5CF222009F442CEB60180E290E025
S1131A900E946C0D2A94F6CFF6018681978102C0CC
S1131AA08FEF9FEF2B96E2E10C94220EFC01059040
S1131AB0615070400110D8F7809590958E0F9F1F4C
S1131AC00895FC016150704001900110D8F7809591
S1131AD090958E0F9F1F08950F931F93CF93DF93BD
S1131AE0FB01238121FD03C08FEF9FEF2CC022FF58
S1131AF016C046815781248135814217530744F427
S1131B00A081B1819D012F5F3F4F318320838C934E
S1131B10268137812F5F3F4F3783268314C08B0183
S1131B20EC01FB010084F185E02D0995892BE1F698
S1131B30D80116968D919C911797019617969C93B0
S1131B408E931697CE01DF91CF911F910F91089537
S1131B50FA01AA27283051F1203181F1E8946F93DA
S1131B606E7F6E5F7F4F8F4F9F4FAF4FB1E03ED080
S1131B70B4E03CD0670F781F891F9A1FA11D680F1E
S1131B80791F8A1F911DA11D6A0F711D811D911D51
S1131B90A11D20D009F468943F912AE0269F1124C6
S1131BA03019305D3193DEF6CF010895462F47702A
S1131BB0405D4193B3E00FD0C9F7F6CF462F4F7085
S1131BC0405D4A3318F0495D31FD4052419302D0E3
S1131BD0A9F7EACFB4E0A695979587957795679589
S1131BE0BA95C9F700976105710508959B01AC0189
S1131BF00A2E06945795479537952795BA95C9F7B0
S1131C00620F731F841F951FA01D08952F923F928A
S1131C104F925F926F927F928F929F92AF92BF92F8
S1131C20CF92DF92EF92FF920F931F93CF93DF93A4
S1131C30CDB7DEB7CA1BDB0B0FB6F894DEBF0FBE01
S1131C40CDBF09942A88398848885F846E847D844E
S1131C508C849B84AA84B984C884DF80EE80FD8050
S1131C600C811B81AA81B981CE0FD11D0FB6F894C6
S1111C70DEBF0FBECDBFED010895F894FFCF87
S1131C7E0000C40120000012001008004E657720F9
S1131C8E47616D6500446562756767696E670044F8
S1131C9E6966666963756C74790043616C69627216
S1131CAE61746500486967682053636F7265004DFF
S1131CBE61696E204D656E75003E4E45573C004E73
S1131CCE4557003E53434F523C0053434F52003E40
S1131CDE43414C49423C0043414C4942003E444935
S1131CEE46463C0044494646003E4445423C004478
S1131CFE45420050494E47504F4E470064656E6E44
S1131D0E6520706F7369736A6F6E656E20656B7391
S1131D1E6973746572657220696B6B65003E0000B1
S9030000FC
