S01000004279676765726E322E7372656314
S11300000C9421060C94CE060C943E060C943E06E9
S11300100C943E060C943E060C943E060C943E064C
S11300200C943E060C943E060C943E060C943E063C
S11300300C943E060C943E060C943E060C943E062C
S11300400C94A10F0C943E060C943E060C943E06B0
S11300500C943E060C943E060C943E060C943E060C
S11300600C943E060C943E060C943E060C943E06FC
S1130070000000000000000000065F5F06000000B2
S11300800007070007070000147F7F147F7F140018
S1130090242E6B6B3A120000466630180C66620020
S11300A0307A4F5D377A48000407030000000000EF
S11300B0001C3E63410000000041633E1C00000040
S11300C0082A3E1C1C3E2A0808083E3E0808000078
S11300D000A0E0600000000008080808080800000C
S11300E000006060000000006030180C060301008E
S11300F03E7F594D7F3E000042427F7F40400000DA
S1130100627359496F660000226349497F360000D3
S1130110181C16137F7F1000276745457D390000A2
S11301203C7E4B4979300000036371190F070000CE
S1130130367F49497F360000064F49693F1E00005B
S113014000006C6C0000000000A0EC6C00000000DB
S11301501824429924428100141414141414000025
S11301608142249942241800020351590F060000C9
S11301703E7F415D5D1F1E00FF3E00000000000049
S1130180FF083E0000000000FF08083E00000000D9
S1130190FF0808083E000000FF080808083E0000A9
S11301A0FF08080808083E00FF0808080808083E79
S11301B000000000000000003C7EFFFFFFFF7E3CCB
S11301C00000000000003EFF00000000003E08FFA9
S11301D0000000003E0808FF0000003E080808FF79
S11301E000003E08080808FF003E0808080808FF49
S11301F03E080808080808FF00000000000000008E
S113020000000000000000000000000000000000EA
S113021000000000000000000000000000000000DA
S113022000000000000000000000000000000000CA
S113023000000000000000000000000000000000BA
S113024000000000000000000000000000000000AA
S1130250000000000000000000000000000000009A
S1130260000000000000000000000000000000800A
S1130270000000000000000000000000000000007A
S1130280000000000000000000000000000000006A
S1130290000000000000000000000000000000005A
S11302A0000000000300000000000000F80000004F
S11302B000000000040000000044000040000000B2
S11302C000C400FD7D000000417F7F10386C4400B5
S11302D000417F7F400000007C7C0C180C7C78007F
S11302E07C7C04047C780000387C44447C38000026
S11302F084FCF8A4243C1800183C24A4F8FC8400D2
S1130300447C78441C180000485C54547424000055
S113031000043E7F442400003C7C40403C7C400080
S11303201C3C60603C1C00003C7C6030607C3C00F9
S1130330446C3810386C44009CBCA0A0FC7C0000C9
S11303404C64745C4C64000008083E774141000032
S113035000000077770000004141773E0808000064
S1130360020301030203010000000000005C00001E
S11303700C000C007C287C2858DC68002410480001
S113038028542840000C0000007884008478000081
S113039054385400107C10008040000010101000ED
S11303A00040000060100C0038543800487C4000C5
S11303B04864580044542C001C107C005C542400F5
S11303C03854240064140C0068542C004854380039
S11303D00048000080480000102844002828280015
S11303E0442810000454080038445C007814780051
S11303F07C542800384428007C4438007C54440051
S11304007C140400384474007C107C00447C440058
S113041020403C007C106C007C4040007C187C0038
S113042078103C00384438007C1408003844B80084
S11304307C14680048542400047C04007C407C0044
S11304403C603C007C307C006C106C000C700C0038
S113045064544C00007C44000C106000447C000098
S113046008040800808080000004080030487800F8
S11304707C4830003048480030487C0030685000E8
S11304801078140090A878007C0870005074400024
S1130490808074007C106800447C400078107800F0
S11304A07808700030483000F82810003048F80010
S11304B07810080050582800083C4800384078005C
S11304C038403800782078004830480098A07800F8
S11304D04868580010788400007C0000847810007C
S11304E00804080400000000000000005F00000091
S11304F0000700070000147F147F1400242A7F2AB9
S11305001200231308646200364955225000000586
S113051003000000001C224100000041221C0000D6
S1130520082A1C2A080008083E0808000050300069
S1130530000008080808080000606000000020109F
S1130540080402003E5149453E0000427F4000003D
S11305504261514946002141454B31001814127F34
S113056010002745454539003C4A4949300001718E
S113057009050300364949493600064949291E0040
S1130580003636000000005636000000081C2A0819
S1130590080014141414140008082A1C080002018A
S11305A051090600324979413E007E1111117E0045
S11305B07F49494936003E41414122007F41412261
S11305C01C007F49494941007F09090101003E415E
S11305D0415132007F0808087F0000417F4100003C
S11305E02040413F01007F08142241007F404040E9
S11305F040007F0204027F007F0408107F003E4118
S113060041413E007F09090906003E4151215E0037
S11306107F091929460046494949310001017F01F2
S113062001003F4040403F001F2040201F007F202A
S113063018207F0063140814630003047804030083
S113064061514945430000007F4141000204081004
S1130650200041417F0000000402010204004040E8
S1130660404040000001020400002054545478002B
S11306707F484444380038444444200038444448C3
S11306807F00385454541800087E090102000814ED
S113069054543C007F080404780000447D4000006A
S11306A02040443D0000007F1028440000417F406A
S11306B000007C04180478007C08040478003844A2
S11306C0444438007C1414140800081414187C00E2
S11306D07C0804040800485454542000043F444057
S11306E020003C4040207C001C2040201C003C405A
S11306F030403C004428102844000C5050503C002A
S11307004464544C440000083641000000007F005B
S1130710000000413608000002010302010000004D
S113072000000000000000065F5F060000000007F4
S1130730070007070000147F7F147F7F1400242E16
S11307406B6B3A120000466630180C666200307A11
S11307504F5D377A48000407030000000000001CC6
S11307603E63410000000041633E1C000000082A73
S11307703E1C1C3E2A0808083E3E0808000000A053
S1130780E0600000000008080808080800000000F5
S11307906060000000006030180C060301003E7F1A
S11307A0594D7F3E000042427F7F4040000062730B
S11307B059496F660000226349497F360000181CBE
S11307C016137F7F1000276745457D3900003C7E66
S11307D04B4979300000036371190F070000367F1D
S11307E049497F360000064F49693F1E000000005A
S11307F06C6C0000000000A0EC6C000000001824E9
S113080042992442810014141414141400008142E7
S1130810249942241800020351590F0600003E7F18
S1130820415D5D1F1E007C7E13137E7C0000417FB2
S11308307F49497F36001C3E634141632200417F6A
S11308407F41637F1C00417F7F495D416300417F9D
S11308507F491D0103001C3E6341517372007F7F79
S113086008087F7F000000417F7F41000000307056
S113087040417F3F0100417F7F081C776300417F37
S11308807F41406070007F7F060C067F7F007F7F82
S1130890060C187F7F001C3E6341633E1C00417FB1
S11308A07F49090F06001E3F21717F5E0000417FD2
S11308B07F19396F460026674D597B32000003418A
S11308C07F7F410300007F7F40407F7F00001F3F08
S11308D060603F1F00007F7F3018307F7F006377A8
S11308E01C081C776300074F78784F070000677374
S11308F0594D47637100007F7F41410000000103AF
S1130900060C183060000041417F7F000000080C95
S11309100603060C080080808080808080800000B0
S1130920030704000000207454543C784000413F05
S11309307F44447C3800387C44446C280000307880
S113094048493F7F4000387C54545C180000487E7E
S11309507F490302000098BCA4A4F87C0400417FF2
S11309607F08047C780000447D7D4000000040C482
S113097084FD7D000000417F7F10386C44000041FD
S11309807F7F400000007C7C0C180C7C78007C7C11
S113099004047C780000387C44447C38000084FCE7
S11309A0F8A4243C1800183C24A4F8FC8400447CDB
S11309B078441C180000485C54547424000000045B
S11309C03E7F442400003C7C40403C7C40001C3C76
S11309D060603C1C00003C7C6030607C3C00446CEB
S11309E03810386C44009CBCA0A0FC7C00004C6413
S11309F0745C4C64000008083E774141000000002C
S1130A000077770000004141773E080800000203A8
S1130A10010302030100390C380C300C280C1D0CA6
S1130A20130C090C080C070C060CFC0BF20BE50B61
S1130A30D90BCD0BCC0BCB0BCA0BBF0BB30BA70B3A
S1130A409A0B990B980B970B900B8B0B8A0B890BBA
S1130A50880B870B860B7B0B7A0B710B6A0B690B6C
S1130A60680B670B660B650B640B590B500B4F0B34
S1130A704E0B4D0B4C0B4B0B4A0B410B3A0B390BEA
S1130A80380B370B360B350B340B2D0B260B250B84
S1130A90240B230B220B210B200B140B130B060B23
S1130AA0F70AF60AF50AEB0AEA0AE90AE80AE70A83
S1130AB0E60AE50AE40AE30AD90AD80ACA0AC90A0C
S1130AC0C80AC70AC60A000000005345434F4E44F3
S1130AD05320555345443A000047414D45204F5655
S1130AE04552000000000000000000414E494D4105
S1130AF054494F4E00000054484520434F4E545231
S1130B004F4C4C455200444F204E4F5420544F55A7
S1130B104348000043414C4942524154494E470026
S1130B2000000000000043484F53454E00534C4919
S1130B304445520000000000000043484F53454E16
S1130B40004A4F59535449434B0000000000000031
S1130B503E534C494445523C003E4A4F5953544934
S1130B60434B3C00000000000000534C49444552F4
S1130B70004A4F59535449434B0000434F4E54527B
S1130B804F4C4C4552000000000000534F4F4E00A4
S1130B90434F4D494E4700000000425554544F4EB8
S1130BA02053544152540050524553532052494704
S1130BB04854004F4E20534F4C4F4E4F4944005021
S1130BC04C4143452042414C4C000000003E414E04
S1130BD0494D4154494F4E3C003E43414C494252D9
S1130BE04154453C003E434F4E54524F4C4C4552A9
S1130BF03C003E32504C415945523C003E31504C31
S1130C00415945523C00000000414E494D41544970
S1130C104F4E0043414C49425241544500434F4ECC
S1130C2054524F4C4C45520032504C41594552009D
S1130C3031504C41594552000050494E47504F4E97
S1130C40470011241FBECFEFD4E0DEBFCDBF11E0BB
S1130C50A0E0B1E0E0EDFCE202C005900D92A63BFD
S1130C60B107D9F721E0A6EBB1E001C01D92A33D85
S1130C70B207E1F70E9495100C9466160C940000DC
S1130C808C9AF894EBE8F0E0808180648083EAE851
S1130C90F0E080818160808380818860808381E04E
S1130CA090E09093870080938600789408950E9442
S1130CB040060895CF93C82F0E941F1060E074E08F
S1130CC08C2F80680E94261080E18A95F1F700C07D
S1130CD080E094E00E942A1090E19A95F1F700C018
S1130CE090E0CF9108950E94771061E088E20E941D
S1130CF03C1065EB89E20E943C1063E48AE20E94A6
S1130D003C1060E08FE00E943C10F89485B782604C
S1130D1085BF85B78E7F85BF8BB780648BBF789482
S1130D2061E08BE20E943C100895FF920F931F93A1
S1130D30CF93DF93EC0108811981B801769567950B
S1130D40769567957695679581E30E943C10602FB0
S1130D506295660F607E82E30E943C10FA806F2DDC
S1130D606F7085E30E943C10FF2079F08E010D5FC7
S1130D701F4FD6E3DF0DC6E3F80161918F018C2F7D
S1130D800E943C10CF5FCD13F7CF81E80E944E1034
S1130D90DF91CF911F910F91FF9008951F920F92B1
S1130DA00FB60F9211248F9381E08093B6018F9137
S1130DB00F900FBE0F901F9018958091B60181304F
S1130DC051F41092B60140E061E08CE20E945310AD
S1130DD081E090E0089580E090E00895CF92DF9262
S1130DE0EF92FF920F931F93CF93DF93CDB7DEB7AC
S1130DF0C059D1400FB6F894DEBF0FBECDBF8E01EF
S1130E0007531F4FCE0101967C016E019FE6C91A5C
S1130E109EEFD90A81E090E00E945A06F80181937E
S1130E2091938F0180E090E00E945A06F70181932C
S1130E3091937F010C151D0569F764E670E0CE01FE
S1130E4087539F4F0E94D8108093C20164E670E0DC
S1130E50CE0101960E94D8108093C101C057DE4F85
S1130E600FB6F894DEBF0FBECDBFDF91CF911F91B7
S1130E700F91FF90EF90DF90CF9008951F93CF9341
S1130E80DF9381E090E00E945A06EC0180E090E05C
S1130E900E945A069C01482F8091C2018C17A8F425
S1130EA08091C2015091C201DD27C81BD10964E6BB
S1130EB06C9FC0016D9F900D11246FEF70E0651B56
S1130EC071090E94F010FB0118C08091C201C8177B
S1130ED090F48091C2016091C201DD27C81BD10941
S1130EE054E65C9FC0015D9F900D112470E00E9448
S1130EF0F010FB0102C0E0E0F0E08091C101841732
S1130F00A8F48091C1014091C1013327281B310904
S1130F1054E6529FC001539F900D11246FEF70E06F
S1130F20641B71090E94F0109B0118C08091C101DB
S1130F30481790F48091C1016091C1013327281BA7
S1130F40310944E6429FC001439F900D112470E093
S1130F500E94F0109B0102C020E030E0BF01C901F3
S1130F60DF91CF911F9108950E943E076E3CEFEFF1
S1130F707E0784F0633371057CF48E3C2FEF920777
S1130F806CF0C3976CF46E5C7F4F6536710550F05E
S1130F9080E0089580E0089581E0089582E0089556
S1130FA083E0089584E00895CF93DF93CDB7DEB74F
S1130FB02B970FB6F894DEBF0FBECDBF21E030E013
S1130FC03A83298393E09B836C838D8386B38170FA
S1130FD08E83CE0101960E9495062B960FB6F89447
S1130FE0DEBF0FBECDBFDF91CF9108950E943D0BB0
S1130FF088E190E00E94450E08950E943D0B80E236
S113100090E00E94450E62E070E088E290E00E9469
S11310107B0E08950E943D0B80E490E00E94450EF3
S11310202FEF83ED90E3215080409040E1F700C022
S11310300000A091C701B091C801B093B801A0937A
S1131040B7011092BA011092B9011296ED91FC9178
S113105013971A968D919C911B97099508950F9358
S11310601F93CF93DF93CDB7DEB72B970FB6F894CA
S1131070DEBF0FBECDBF0E943D0B80E190E00E9419
S1131080450E0E943E070E94D407B0990AC00CE0A6
S113109011E01F930F930E9465130F900F90B09B64
S11310A0F8CF0E94DD060E94DD0681E090E09A837D
S11310B0898383E08B8381E08E83CE0101960E9435
S11310C0950680E098E00E942A108C010E94790F16
S11310D0C8019927009739F0019771F011C00E9457
S11310E03E070E94D4070E94DD06892BC1F308C085
S11310F00E94EA0E0E94460F0E94DD06892BC1F36E
S11311000E943D0B80E590E00E94450E0E94AE0EC9
S11311102FEF83ED90E3215080409040E1F700C031
S11311200000A091C701B091C801B093B801A09389
S1131130B7011092BA011092B9011296ED91FC9187
S113114013971A968D919C911B9709952B960FB620
S1131150F894DEBF0FBECDBFDF91CF911F910F91E9
S113116008950E943D0B80E390E00E94450E60E0EC
S113117078E080E090E00E9426102FEF83ED90E36A
S1131180215080409040E1F700C00000A091C701C9
S1131190B091C801B093B801A093B7011092BA01FD
S11311A01092B9011296ED91FC9113971A968D91B4
S11311B09C911B97099508950E943D0B88E390E04C
S11311C00E94450E60E078E081E090E00E942610E5
S11311D02FEF83ED90E3215080409040E1F700C071
S11311E00000A091C701B091C801B093B801A093C9
S11311F0B7011092BA011092B9011296ED91FC91C7
S113120013971A968D919C911B97099508950E94A6
S11312103D0B88E490E00E94450E84E090E00E943B
S1131220A00CA091C701B091C801B093B801A093DC
S1131230B7011092BA011092B9011296ED91FC9186
S113124013971A968D919C911B9709950895AF92C7
S1131250BF92CF92DF92EF92FF920F931F93CF939F
S1131260DF938C017B015A0169018EE090E00E94BA
S11312701811EC01198308831D821C821F821E82AF
S1131280FB86EA86C7010E94570C9D878C87BB8228
S1131290AA82D986C886F801668177816F5F7F4FFD
S11312A0660F771F848195810E943912F801958316
S11312B0848326813781A901440F551FFC01E40F63
S11312C0F51FD183C0832F5F3F4FF80137832683F7
S11312D0CE01DF91CF911F910F91FF90EF90DF909E
S11312E0CF90BF90AF9008950F931F93CF93DF9348
S11312F08EE090E00E941811EC018FE091E09B8752
S11313008A871D861C861F821E82198218821B8270
S11313101A821986188620E130E04FE258E069E12C
S113132071E0CE010E94270928E130E046EF57E042
S113133061E271E0CE010E94270920E230E04DEF26
S113134057E069E271E0CE010E9427098C0120E395
S113135030E041EB58E064E371E00E94270928E3A0
S113136030E04CED58E06DE371E0C8010E942709BC
S113137020E430E04AE058E064E471E0CE010E94E9
S1131380270928E430E047E059E06EE471E0CE013B
S11313900E9427090E943D0B80E090E00E94450EC8
S11313A062E070E088E090E00E947B0ED093B80188
S11313B0C093B701DF91CF911F910F910895CF93FF
S11313C0DF930E94B407843009F497C02FEF87EEAF
S11313D093E0215080409040E1F700C000000E945B
S11313E0B407823009F443C0833009F086C0809189
S11313F0B9019091BA01181619060CF07EC08E5FDF
S11314000E94BA0AC9EBD1E088818E5F0E94010B69
S11314106091B9017091BA016E5F7F4FE091B7019D
S1131420F091B801808591850E947B0E88818F5F41
S11314300E94BA0A88818F5F0E94010B6091B901F2
S11314407091BA016F5F7F4FE091B701F091B801DD
S11314508085918508960E947B0E8091B9019091B8
S1131460BA0101979093BA018093B90146C0809163
S1131470B9019091BA01E091B701F091B8012681C8
S113148037812150310982179307BCF58E5F0E9482
S1131490BA0AC9EBD1E088818E5F0E94010B60918A
S11314A0B9017091BA016E5F7F4FE091B701F0917D
S11314B0B801808591850E947B0E88818D5F0E9492
S11314C0BA0A88818D5F0E94010B6091B901709105
S11314D0BA016D5F7F4FE091B701F091B80180854B
S11314E0918508960E947B0E8091B9019091BA0172
S11314F001969093BA018093B901B2992CC0E091FE
S1131500B701F091B801848195810097D9F0E091F9
S1131510B901F091BA01EE0FFF1FE80FF91FA08186
S1131520B181B093B801A093B7011092BA0110929F
S1131530B9011296ED91FC9113971A968D919C9195
S11315401B9709952FEF83EC99E021508040904040
S1131550E1F700C00000DF91CF910895E091080108
S1131560F091090190E29083E0910801F091090162
S113157080830895883048F088E591E09F938F93A5
S11315800E9465130F900F90089590EB980FE091CF
S11315900801F0910901908390E09093C401809335
S11315A0C301089588234CF488E591E09F938F93B9
S11315B00E9465130F900F900895282F2F70982F75
S11315C092959F70905FE0910801F09109019083DA
S11315D0E0910801F0910901208390E09093C60105
S11315E08093C5010895CF93C62F0E94BA0A8C2F09
S11315F00E94D20ACF91089560E080E00E94F30A2D
S1131600089560E00E94F30A80E090E0E091060112
S1131610F0910701E80FF91F1082019680389105B7
S1131620A9F7089560E080E00E94F30A80E00E9438
S1131630AE0A80E090E0E0910601F0910701E80F26
S1131640F91F10820196811524E09207A1F760E04A
S113165084E00E94F30A80E090E0E0910601F091BA
S11316600701E80FF91F10820196811524E0920703
S1131670A1F782E00E94AE0A08950E94FC0A0E942B
S1131680120B82E00E94AE0A089580526430710504
S113169009F470C01CF4672B89F008956630710555
S11316A009F440C06830710509F0B3C020910A0103
S11316B030910B011216130654F0089520910A017B
S11316C030910B01121613060CF479C0089590E0C2
S11316D0880F991F880F991F880F991F20E030E009
S11316E0A3ECB1E0F901E80FF91FE25EF84F459170
S11316F05491E0910601F0910701408312964D91B7
S11317005C9113974F5F5F4F13965C934E931297C0
S11317102F5F3F4F40910A0150910B012417350769
S11317200CF3089590E09C01220F331F820F931F46
S1131730880F991F20E030E0A3ECB1E0F901E80F35
S1131740F91FEC51FB4F45915491E0910601F09142
S11317500701408312964D915C9113974F5F5F4F41
S113176013965C934E9312972F5F3F4F26303105AB
S113177029F7089590E0880F991F880F991F20E09A
S113178030E0A3ECB1E0F901E80FF91FE859FC4F90
S113179045915491E0910601F0910701408312961E
S11317A04D915C9113974F5F5F4F13965C934E93EB
S11317B012972F5F3F4F2430310529F7089590E0A9
S11317C0880F991F880F991F880F991F40E050E0D8
S11317D0A3ECB1E0FA01E80FF91FE059FF4F25919E
S11317E03491E0910601F0910701208312962D9126
S11317F03C9113972F5F3F4F13963C932E93129770
S11318004F5F5F4F20910A0130910B01421753073C
S11318100CF30895CF92DF92EF92FF920F931F93F0
S1131820CF93DF93EC017B018C01C12CD12C09C037
S1131830B701F80181918F010E94450BFFEFCF1A88
S1131840DF0AFE0101900020E9F73197EC1BFD0B44
S1131850CE16DF0668F3DF91CF911F910F91FF90B1
S1131860EF90DF90CF9008950F931F93CF93DF9362
S1131870EC018B01FC0101900020E9F73197E81B92
S1131880F90B6E9F90016F9F300D7E9F300D1124D8
S1131890369527958FE3821B0E94D20AB801CE01A8
S11318A00E940A0CDF91CF911F910F9108950F931D
S11318B01F93CF93DF938C0184E190E00E94181171
S11318C0EC018EE390E099838883B801CE010E94F5
S11318D00F13FE0101900020E9F731978CE390E0AB
S11318E091838083CE01DF91CF911F910F91089551
S11318F01F93CF93DF93182F862FD42FC22F0E94CC
S1131900D20A60E070E0812F0E94450B8C2F0E9468
S1131910D20A60E070E08D2F0E94450B83ED90E3C6
S11319200197F1F700C000008C2F0E94D20A60E0FA
S113193070E088E40E94450BDF91CF911F910895D8
S11319400F931F93CF930E94BA0A88E70E94D20A8A
S113195060E070E08AE40E94450B03E010E022E0BE
S113196030E049E460E070E081E40E94780C23E018
S113197030E049E460E070E082E40E94780C24E006
S113198030E049E460E070E083E40E94780C25E0F4
S113199030E049E460E070E084E40E94780C26E0E2
S11319A030E049E460E070E085E40E94780C27E0D0
S11319B030E049E460E070E086E40E94780C28E0BE
S11319C030E049E460E070E087E40E94780C29E0AC
S11319D030E049E460E070E086E40E94780C2AE09C
S11319E030E049E460E070E085E40E94780C2BE08C
S11319F030E049E460E070E084E40E94780C2CE07C
S1131A0030E049E460E070E083E40E94780C2DE06B
S1131A1030E049E460E070E082E40E94780C2EE05B
S1131A2030E049E460E070E081E40E94780CCFE0AB
S1131A308C2F0E94D20A60E070E089E40E94450B7A
S1131A4083ED90E30197F1F700C000008C2F0E9412
S1131A50D20A60E070E088E40E94450BCF5FC6378D
S1131A6039F726E730E049E468E770E08AE40E9449
S1131A70780C25E730E049E468E770E08BE40E94E5
S1131A80780C24E730E049E468E770E08CE40E94D5
S1131A90780C23E730E049E468E770E08DE40E94C5
S1131AA0780C22E730E049E468E770E08EE40E94B5
S1131AB0780C21E730E049E468E770E08FE40E94A5
S1131AC0780C20E730E049E468E770E080E50E94A4
S1131AD0780C2FE630E049E468E770E08FE40E9478
S1131AE0780C2EE630E049E468E770E08EE40E946A
S1131AF0780C2DE630E049E468E770E08DE40E945C
S1131B00780C2CE630E049E468E770E08CE40E944D
S1131B10780C2BE630E049E468E770E08BE40E943F
S1131B20780C2AE630E049E468E770E08AE40E9431
S1131B30780CC9E68C2F0E94D20A60E070E089E438
S1131B400E94450B83ED90E30197F1F700C000007C
S1131B508C2F0E94D20A60E070E088E40E94450B5A
S1131B60C150C13039F70150110909F0F8CECF91B5
S1131B701F910F910895E0910801F09109018EEAF7
S1131B808083E0910801F091090181EA8083E0916A
S1131B900801F09109018AED8083E0910801F09138
S1131BA0090182E18083E0910801F091090188EC48
S1131BB08083E0910801F091090188EA8083E09133
S1131BC00801F09109018FE38083E0910801F0910D
S1131BD0090185ED8083E0910801F091090180E815
S1131BE08083E0910801F091090181E88083E0910C
S1131BF00801F091090180E58083E0910801F091EA
S1131C00090189ED8083E0910801F091090181E2E5
S1131C108083E0910801F091090180E28083E091E2
S1131C200801F091090182E08083E0910801F091BC
S1131C3009018BED8083E0910801F091090180E3B3
S1131C408083E0910801F09109018DEA8083E0919D
S1131C500801F09109011082E0910801F091090155
S1131C6084EA8083E0910801F091090186EA808387
S1131C70E0910801F09109018FEA80830E94120B20
S1131C8060E080E00E94F30A0895EF92FF921F93B0
S1131C90CF93DF93CDB7DEB760970FB6F894DEBF6E
S1131CA00FBECDBF880F991F9C012A5E354F790165
S1131CB010E0812F0E94BA0AF70165917491CE0158
S1131CC001960E94FF1268E070E0CE0101960E9426
S1131CD0340C1F5F32E0E30EF11C183051F76096AC
S1131CE00FB6F894DEBF0FBECDBFDF91CF911F9129
S1131CF0FF90EF900895EF92FF920F931F93CF936D
S1131D00DF93CDB7DEB760970FB6F894DEBF0FBE92
S1131D10CDBF8C017B01862F0E94BA0AF701E00F28
S1131D20F11FEE0FFF1FEA5EF54F65917491CE012E
S1131D3001960E94FF1268E070E0CE0101960E94B5
S1131D40340C60960FB6F894DEBF0FBECDBFDF91A2
S1131D50CF911F910F91FF90EF9008951F93CF9310
S1131D60DF930E94970FEC010E949C0F182F84E0D0
S1131D700E94BA0A8BE20E94D20ACE0164E670E0A5
S1131D800E94F010862F68E070E0805D0E94450B91
S1131D90CE016AE070E00E94F010962FC82F68E030
S1131DA070E080E3890F0E94450B68E070E080E3F7
S1131DB08C0F0E94450B68E070E08CE20E94450B9A
S1131DC068E070E080E3810F0E94450BDF91CF91C2
S1131DD01F9108951F93CF93DF9382E090E00E94B8
S1131DE05A06EC0183E090E00E945A069C01482FB9
S1131DF0C03878F0DD27CF57D10954E65C9FC00185
S1131E005D9F900D11246FE770E00E94F010FB01BC
S1131E1013C0CF3778F4DD27CF57D10954E65C9F40
S1131E20C0015D9F900D11246FE770E00E94F010D7
S1131E30FB0102C0E0E0F0E0403878F033272F5790
S1131E40310944E6429FC001439F900D11246FE77E
S1131E5070E00E94F0109B0113C04F3778F43327D1
S1131E602F57310944E6429FC001439F900D11242E
S1131E706FE770E00E94F0109B0102C020E030E0A8
S1131E80BF01C901DF91CF911F910895CF93DF93D3
S1131E90CDB7DEB72B970FB6F894DEBF0FBECDBF1C
S1131EA021E030E03A83298393E09B836C838D8324
S1131EB086B381708E83CE0101960E9495062B967F
S1131EC00FB6F894DEBF0FBECDBFDF91CF9108955A
S1131ED080EB87BB81E58DB9C49AC29A08958FB906
S1131EE0779BFECF089585E48FB9779BFECF8FB1A2
S1131EF00895F8941092C0011092BF011092BE018F
S1131F001092BD011092BC011092BB0183B7846092
S1131F1083BF83B7886083BF83B78F7B83BF81B759
S1131F20806C81BF89B7816089BF7894089580915E
S1131F30BD019091BE0108958091BB019091BC01B7
S1131F4008951F920F920FB60F9211242F933F936F
S1131F504F935F936F937F938F939F93AF93BF93AD
S1131F60EF93FF932091BF013091C0012F5F3F4F4A
S1131F703093C0012093BF01C9016AE070E00E9460
S1131F80F010892BA9F58091BB019091BC010196B9
S1131F909093BC018093BB01C90164E670E00E9488
S1131FA0F010892B69F48091BD019091BE010196D6
S1131FB09093BE018093BD011092BC011092BB01AD
S1131FC08091BC018F938091BB018F938091BE015E
S1131FD08F938091BD018F9389E791E09F938F93B5
S1131FE00E9465130F900F900F900F900F900F9019
S1131FF0FF91EF91BF91AF919F918F917F916F91DD
S11320005F914F913F912F910F900FBE0F901F90B2
S1132010189590BD89B988E18AB98EE880BD60E0E1
S113202070E08AE190E10E941A1308955D9BFECF4F
S11320308CB908950E94161080E090E0089585B749
S1132040806885BF80B7806280BF0895FB01F05F20
S113205080830895905FFC0180810895CF93C82FF9
S1132060C49883E00E946F0F8C2F0E946F0F0E9410
S1132070730FC49ACF910895CF93DF93D82FC62FAF
S1132080C49882E00E946F0F8D2F0E946F0F8C2FD7
S11320900E946F0FC49ADF91CF910895C4980E9453
S11320A06F0FC49A08951F93CF93DF93182FD62FE1
S11320B0C42FC49885E00E946F0F812F0E946F0F78
S11320C08D2F0E946F0F8C2F0E946F0FC49ADF9187
S11320D0CF911F910895C49880EC0E946F0FC49A09
S11320E08FE39CE90197F1F700C0000008950E9476
S11320F0680F0E946B108FE39FE10197F1F700C016
S113210000008EE00E942E10982F907E903861F08F
S11321101F928F9388E891E09F938F930E94651399
S11321200F900F900F900F9008958FE190E00E9410
S113213009100E941F100E94BB0D0E9474090E9486
S113214057060E94EE060E94730685E08A95F1F711
S113215000000E94DF09F9CFCF93DF93EB012197B1
S11321601C161D0614F561507048660F771F680F22
S1132170791F17C0FC01219131914081518142178F
S1132180530734F4DF0112974D935C93318320831A
S1132190E617F70781F721976250710968177907E5
S11321A021F01C161D0634F3F6CFDF91CF9108956C
S11321B00F931F93CF93DF938C01EB010E94AC101C
S11321C02196CE010AF40196FC01EE7F3297E00FCE
S11321D0F11F80819181DF91CF911F910F9108951B
S11321E097FB072E16F4009407D077FD09D00E94C0
S11321F0041107FC05D03EF4909581959F4F0895F6
S1132200709561957F4F0895AA1BBB1B51E107C0D0
S1132210AA1FBB1FA617B70710F0A61BB70B881F72
S1132220991F5A95A9F780959095BC01CD01089501
S11322300F931F93CF93DF938230910510F482E0C4
S113224090E0E091CB01F091CC0120E030E0A0E0FF
S1132250B0E0309719F14081518102811381481710
S11322605907C8F08417950769F4109731F012964E
S11322700C93129713961C9327C00093CB011093D1
S1132280CC0122C02115310519F04217530718F467
S11322909A01BD01EF01DF01F801DBCF2115310502
S11322A0F9F0281B390B2430310580F48A819B8195
S11322B06115710521F0FB019383828304C090931F
S11322C0CC018093CB01FE01329644C0FE01E20FA3
S11322D0F31F8193919322503109398328833AC0A3
S11322E02091C9013091CA01232B41F420910201AC
S11322F0309103013093CA012093C9012091000158
S1132300309101012115310541F42DB73EB74091BB
S1132310040150910501241B350BE091C901F09192
S1132320CA01E217F307A0F42E1B3F0B2817390745
S113233078F0AC014E5F5F4F2417350748F04E0F1D
S11323405F1F5093CA014093C9018193919302C0C6
S1132350E0E0F0E0CF01DF91CF911F910F9108955C
S1132360CF93DF93009709F481C0FC013297138265
S11323701282A091CB01B091CC01109781F42081FD
S11323803181820F931F2091C9013091CA0128170E
S1132390390751F5F093CA01E093C90167C0ED0113
S11323A020E030E0CE17DF0740F44A815B819E01D4
S11323B041155105F1F0EA01F5CFD383C283408181
S11323C05181840F951FC817D90759F488819981C1
S11323D0840F951F0296918380838A819B819383C6
S11323E082832115310529F4F093CC01E093CB01CC
S11323F03DC0E901FB83EA8349915991C40FD51F7C
S1132400EC17FD0761F480819181840F951F02967A
S1132410E90199838883828193819B838A83E0E0A5
S1132420F0E012968D919C911397009719F0FD019D
S1132430DC01F7CF8D919C9111979D012E5F3F4F49
S1132440820F931F2091C9013091CA0128173907BF
S113245069F4309729F41092CC011092CB0102C098
S113246013821282B093CA01A093C901DF91CF9164
S11324700895A0E0B0E0EFE3F2E10C943316EC0130
S1132480009721F4CB010E941811B4C0FC01E60F9F
S1132490F71F9C0122503109E217F30708F4A8C082
S11324A0D9010D911C91119706171707B0F005304B
S11324B0110508F49BC0C80104978617970708F410
S11324C095C002501109061B170B019311936D93CC
S11324D07C93CF010E94B01189C05B01A01AB10A9C
S11324E04C01800E911EA091CB01B091CC01612CC6
S11324F0712CE12CF12C109709F446C08D919C911C
S11325001197A815B905B1F56C0142E0C40ED11CB0
S1132510CA14DB0478F14C018A189B08640142E078
S1132520C40ED11C1296BC9012971396AC91B5E0D0
S1132530CB16D10440F0B282A38391828082D90168
S11325406D937C9309C00E5F1F4F800F911FF9019B
S113255091838083EB2DFA2FE114F10431F0D7013C
S11325601396FC93EE93129741C0F093CC01E09341
S1132570CB013CC06816790608F43C017D01129633
S11325800D90BC91A02DB7CF8091C9019091CA0143
S113259088169906E1F466167706C8F4809100015E
S11325A090910101009741F48DB79EB740910401C9
S11325B050910501841B950BE817F907C8F4F093B3
S11325C0CA01E093C901F901718360830FC0CB0193
S11325D00E9418117C01009759F0A801BE010E94C5
S11325E00613CE010E94B011C70104C0CE0102C07F
S11325F080E090E0CDB7DEB7EEE00C944F16FB011F
S1132600DC0105900D920020E1F70895FB01DC0147
S113261002C001900D9241505040D8F70895FB013B
S1132620DC010D900020E9F7119701900D92002034
S1132630E1F708950F931F93CF93DF93009731F43D
S11326406115710519F480E090E03AC08B01EC014A
S11326506EE070E081E090E00E945C15FC01892B43
S113266091F380E883830115110571F013870287C4
S113267081E883838091CD019091CE01892B21F44F
S1132680F093CE01E093CD012097C9F0D187C087A4
S11326908381826083838091CF019091D001892BC3
S11326A071F4F093D001E093CF018091D101909126
S11326B0D201892B21F4F093D201E093D101CF010F
S11326C0DF91CF911F910F910895A0E0B0E0EBE668
S11326D0F3E10C943F16AE014B5F5F4FFA01619139
S11326E07191AF018091CF019091D0010E947B1331
S11326F0E2E00C945B16ABE0B0E0E1E8F3E10C94AB
S11327002F166C017B018A01FC01178216828381DA
S113271081FFCCC1CE0101963C01F6019381F70102
S113272093FD859193FF81917F01882309F4BAC1B8
S1132730853239F493FD859193FF81917F01853230
S113274029F4B60190E00E949515E7CF912C212C35
S1132750312CFFE1F315D8F08B3279F038F4803264
S113276079F08332A1F4232D20611DC08D3261F0F4
S1132770803369F4232D216016C0832D8260382EA6
S1132780E32DE4603E2E2AC0F32DF8601DC037FC13
S11327902DC020ED280F2A3040F08E32B9F436FCDB
S11327A081C1232D2064322E19C036FE06C08AE072
S11327B0989E200D1124922E11C0EAE02E9E200D29
S11327C01124222EF32DF0623F2E08C08C3621F402
S11327D0832D8068382E02C0883641F4F70193FDBA
S11327E0859193FF81917F018111B3CF982F9F7DB4
S11327F09554933028F40C5F1F4F9FE399830DC0C9
S1132800833631F0833771F0833509F059C021C024
S1132810F801808189830E5F1F4F88248394912C53
S1132820530113C02801F2E04F0E511CF801A0809F
S1132830B18036FE03C0692D70E002C06FEF7FEFF8
S1132840C5010E948A154C018201F32DFF773F2EAA
S113285016C0280122E0420E511CF801A080B1806C
S113286036FE03C0692D70E002C06FEF7FEFC50133
S11328700E9478154C01F32DF0683F2E820133FC41
S11328801BC0822D90E088169906B0F4B60180E250
S113289090E00E9495152A94F4CFF50137FC8591B8
S11328A037FE81915F01B60190E00E9495152110D9
S11328B02A9421E0821A91088114910471F7E8C0E6
S11328C0843611F0893641F5F80137FE07C060817E
S11328D07181828193810C5F1F4F08C06081718177
S11328E0072E000C880B990B0E5F1F4FF32DFF76FC
S11328F03F2E97FF09C090958095709561957F4F05
S11329008F4F9F4FF0683F2E2AE030E0A3010E94D2
S1132910D115882E861845C0853731F4232D2F7E96
S1132920B22E2AE030E025C0932D997FB92E8F3640
S1132930C1F018F4883579F0B5C0803719F08837BC
S113294021F0B0C0E92FE061BE2EB4FE0DC0FB2D16
S1132950F460BF2E09C034FE0AC0292F2660B22EAF
S113296006C028E030E005C020E130E002C020E1EC
S113297032E0F801B7FE07C06081718182819381E2
S11329800C5F1F4F06C06081718180E090E00E5F94
S11329901F4FA3010E94D115882E8618FB2DFF77A7
S11329A03F2E36FE0DC0232D2E7FA22E891458F4FF
S11329B034FE0BC032FC09C0832D8E7EA82E05C0C8
S11329C0B82CA32C03C0B82C01C0B92CA4FE0FC092
S11329D0FE01E80DF11D8081803321F49A2D997E4A
S11329E0A92E09C0A2FE06C0B394B39404C08A2DD4
S11329F0867809F0B394A3FC11C0A0FE06C0B214FB
S1132A0088F4280C922C9B180EC0B21460F4B60102
S1132A1080E290E00E949515B394F7CFB21418F4B5
S1132A202B1802C0982C212CA4FE10C0B60180E300
S1132A3090E00E949515A2FE17C0A1FC03C088E790
S1132A4090E002C088E590E0B6010CC08A2D86783B
S1132A5059F0A1FE02C08BE201C080E2A7FC8DE226
S1132A60B60190E00E949515891438F4B60180E30C
S1132A7090E00E9495159A94F7CF8A94F301E80D9B
S1132A80F11D8081B60190E00E9495158110F5CF6B
S1132A90222009F442CEB60180E290E00E9495150E
S1132AA02A94F6CFF6018681978102C08FEF9FEFBB
S1132AB02B96E2E10C944B160F931F93CF93DF9365
S1132AC0869F8001879F100D969F100D1124C801C9
S1132AD00E941811EC01009729F0A80160E070E051
S1132AE00E948315CE01DF91CF911F910F9108951C
S1132AF0FC010590615070400110D8F780959095C5
S1132B008E0F9F1F0895DC0101C06D93415050400A
S1132B10E0F70895FC016150704001900110D8F76E
S1132B20809590958E0F9F1F08950F931F93CF93B9
S1132B30DF93FB01238121FD03C08FEF9FEF2CC0A6
S1132B4022FF16C0468157812481358142175307DD
S1132B5044F4A081B1819D012F5F3F4F31832083D5
S1132B608C93268137812F5F3F4F3783268314C090
S1132B708B01EC01FB010084F185E02D0995892B83
S1132B80E1F6D80116968D919C91179701961796A8
S1132B909C938E931697CE01DF91CF911F910F9145
S1132BA00895FA01AA27283051F1203181F1E894DF
S1132BB06F936E7F6E5F7F4F8F4F9F4FAF4FB1E02C
S1132BC03ED0B4E03CD0670F781F891F9A1FA11D27
S1132BD0680F791F8A1F911DA11D6A0F711D811D28
S1132BE0911DA11D20D009F468943F912AE0269FED
S1132BF011243019305D3193DEF6CF010895462F4C
S1132C004770405D4193B3E00FD0C9F7F6CF462F2C
S1132C104F70405D4A3318F0495D31FD4052419395
S1132C2002D0A9F7EACFB4E0A69597958795779552
S1132C306795BA95C9F700976105710508959B01D9
S1132C40AC010A2E06945795479537952795BA9562
S1132C50C9F7620F731F841F951FA01D08952F923B
S1132C603F924F925F926F927F928F929F92AF9218
S1132C70BF92CF92DF92EF92FF920F931F93CF9365
S1132C80DF93CDB7DEB7CA1BDB0B0FB6F894DEBFFC
S1132C900FBECDBF09942A88398848885F846E8422
S1132CA07D848C849B84AA84B984C884DF80EE806C
S1132CB0FD800C811B81AA81B981CE0FD11D0FB675
S1132CC0F894DEBF0FBECDBFED010895F894FFCF99
S1132CD00000D30120000012001008002D2D004D2B
S1132CE061696E204D656E750031504C41594552F5
S1132CF00032504C4159455200434F4E54524F4CB0
S1132D004C4552004A4F59535449434B00534C4984
S1132D104445520043414C49425241544500414EBE
S1132D20494D4154494F4E0064656E6E6520706F85
S1132D307369736A6F6E656E20656B73697374650E
S1132D4072657220696B6B650054696D653A202564
S1132D50642C2564200A0D004E6F7420696E206374
S1132D606F6E666967206D6F646520616674657255
S1132D70207265736574212076616C75653A20252F
S1092D8078200A0D00009A
S9030000FC
