S01000004279676765726E322E7372656314
S11300000C948F030C94AC030C94AC030C94AC03CD
S11300100C94AC030C94AC030C94AC030C94AC03A0
S11300200C94AC030C94AC030C94AC030C94AC0390
S11300300C94AC030C94AC030C94AC030C94AC0380
S11300400C94AC030C94AC030C94AC030C94AC0370
S11300500C94AC030C94AC030C94AC030C94AC0360
S11300600C94AC030C94AC030C94AC030C94AC0350
S113007000000000005C00000C000C007C287C28C0
S113008058DC68002410480028542840000C000064
S1130090007884008478000054385400107C1000E8
S11300A080400000101010000040000060100C00A0
S11300B038543800487C40004864580044542C00AC
S11300C01C107C005C5424003854240064140C007C
S11300D068542C0048543800004800008048000050
S11300E0102844002828280044281000045408003C
S11300F038445C00781478007C5428003844280084
S11301007C4438007C5444007C140400384474005B
S11301107C107C00447C440020403C007C106C003B
S11301207C4040007C187C0078103C003844380047
S11301307C1408003844B8007C1468004854240037
S1130140047C04007C407C003C603C007C307C00EF
S11301506C106C000C700C0064544C00007C440067
S11301600C106000447C00000804080080808000BB
S113017000040800304878007C48300030484800CB
S113018030487C00306850001078140090A8780043
S11301907C08700050744000808074007C106800FB
S11301A0447C4000781078007808700030483000B3
S11301B0F82810003048F80078100800505828003B
S11301C0083C4800384078003840380078207800EF
S11301D04830480098A07800486858001078840097
S11301E0007C00008478100008040804000000006B
S11301F0000000005F000000000700070000147FFB
S1130200147F1400242A7F2A120023130864620036
S1130210364955225000000503000000001C22410D
S113022000000041221C0000082A1C2A08000808BB
S11302303E080800005030000000080808080800C4
S11302400060600000002010080402003E5149458F
S11302503E0000427F400000426151494600214176
S1130260454B31001814127F1000274545453900CD
S11302703C4A49493000017109050300364949499E
S11302803600064949291E00003636000000005693
S113029036000000081C2A08080014141414140062
S11302A008082A1C08000201510906003249794154
S11302B03E007E1111117E007F49494936003E41BE
S11302C0414122007F4141221C007F4949494100AC
S11302D07F09090101003E41415132007F080808AD
S11302E07F0000417F4100002040413F01007F0822
S11302F0142241007F40404040007F0204027F00FE
S11303007F0408107F003E4141413E007F090909F6
S113031006003E4151215E007F09192946004649E5
S11303204949310001017F0101003F4040403F0045
S11303301F2040201F007F2018207F006314081412
S1130340630003047804030061514945430000003D
S11303507F41410002040810200041417F00000059
S11303600402010204004040404040000001020435
S113037000002054545478007F48444438003844E2
S113038044442000384444487F00385454541800EE
S1130390087E09010200081454543C007F08040438
S11303A0780000447D4000002040443D0000007F70
S11303B01028440000417F4000007C0418047800A9
S11303C07C08040478003844444438007C14141431
S11303D00800081414187C007C080404080048541D
S11303E054542000043F444020003C4040207C0002
S11303F01C2040201C003C4030403C004428102875
S113040044000C5050503C004464544C44000008D8
S11304103641000000007F00000000413608000063
S113042002010302010000000000000000000006B9
S11304305F5F060000000007070007070000147F45
S11304407F147F7F1400242E6B6B3A1200004666E3
S113045030180C666200307A4F5D377A4800040722
S1130460030000000000001C3E6341000000004146
S1130470633E1C000000082A3E1C1C3E2A08080893
S11304803E3E0808000000A0E060000000000808EC
S113049008080808000000006060000000006030E8
S11304A0180C060301003E7F594D7F3E0000424276
S11304B07F7F40400000627359496F6600002263E9
S11304C049497F360000181C16137F7F10002767E8
S11304D045457D3900003C7E4B497930000003637B
S11304E071190F070000367F49497F360000064F17
S11304F049693F1E000000006C6C0000000000A071
S1130500EC6C000000001824429924428100141469
S11305101414141400008142249942241800020384
S113052051590F0600003E7F415D5D1F1E007C7E19
S113053013137E7C0000417F7F49497F36001C3EB7
S1130540634141632200417F7F41637F1C00417FFF
S11305507F495D416300417F7F491D0103001C3ECB
S11305606341517372007F7F08087F7F0000004160
S11305707F7F41000000307040417F3F0100417F98
S11305807F081C776300417F7F41406070007F7F5C
S1130590060C067F7F007F7F060C187F7F001C3EC1
S11305A06341633E1C00417F7F49090F06001E3FE3
S11305B021717F5E0000417F7F19396F46002667F5
S11305C04D597B32000003417F7F410300007F7F50
S11305D040407F7F00001F3F60603F1F00007F7F1F
S11305E03018307F7F0063771C081C776300074F47
S11305F078784F0700006773594D47637100007F97
S11306007F41410000000103060C183060000041E6
S1130610417F7F000000080C0603060C0800808060
S11306208080808080800000030704000000207424
S113063054543C784000413F7F44447C3800387C2B
S113064044446C280000307848493F7F4000387C9F
S113065054545C180000487E7F490302000098BC93
S1130660A4A4F87C0400417F7F08047C7800004443
S11306707D7D4000000040C484FD7D000000417F7A
S11306807F10386C440000417F7F400000007C7C78
S11306900C180C7C78007C7C04047C780000387C8A
S11306A044447C38000084FCF8A4243C1800183C22
S11306B024A4F8FC8400447C78441C180000485CA2
S11306C054547424000000043E7F442400003C7C05
S11306D040403C7C40001C3C60603C1C00003C7C76
S11306E06030607C3C00446C3810386C44009CBC26
S11306F0A0A0FC7C00004C64745C4C6400000808FE
S11307003E7741410000000000777700000041413E
S1130710773E0808000002030103020301001124CC
S11307201FBECFEFD4E0DEBFCDBF11E0A0E0B1E04B
S1130730E6E0FDE102C005900D92A43DB107D9F7B2
S113074021E0A4EDB1E001C01D92A63EB207E1F79D
S11307500E94B5080C94810E0C9400008C9AF894B5
S1130760EBE8F0E0808180648083EAE8F0E0808157
S11307708160808380818860808381E090E09093B1
S1130780870080938600789408950E94AE030895AC
S1130790CF93C82F0E94570860E074E08C2F8068C4
S11307A00E945E0880E18A95F1F700C080E094E041
S11307B00E94620890E19A95F1F700C090E0CF9111
S11307C008950E94970861E088E20E94740865EB2E
S11307D089E20E94740863E48AE20E94740860E07B
S11307E08FE00E947408F89485B7826085BF85B74E
S11307F08E7F85BF8BB780648BBF789463E08BE278
S11308000E9474080895FF920F931F93CF93DF9370
S1130810EC0108811981B8017695679576956795FD
S11308207695679581E30E947408602F6295660F40
S1130830607E82E30E947408FA806F2D6F7085E3F6
S11308400E947408FF2079F08E010D5F1F4FD6E3DC
S1130850DF0DC6E3F80161918F018C2F0E947408AB
S1130860CF5FCD13F7CF81E80E948608DF91CF9147
S11308701F910F91FF900895CF92DF92EF92FF9214
S11308800F931F93CF93DF93CDB7DEB7C059D140F9
S11308900FB6F894DEBF0FBECDBF8E0107531F4FB6
S11308A0CE0101967C016E019FE6C91A9EEFD90A1A
S11308B081E090E00E94C803F801819391938F0135
S11308C080E090E00E94C803F701819391937F0137
S11308D00C151D0569F764E670E0CE0187539F4F40
S11308E00E94FA088093D70164E670E0CE01019675
S11308F00E94FA088093D601C057DE4F0FB6F894D1
S1130900DEBF0FBECDBFDF91CF911F910F91FF903E
S1130910EF90DF90CF9008951F93CF93DF9381E002
S113092090E00E94C803EC0180E090E00E94C803BC
S11309309C01482F8091D7018C17A8F48091D7018E
S11309405091D701DD27C81BD10964E66C9FC00113
S11309506D9F900D11246FEF70E0651B71090E946B
S11309601209FB0118C08091D701C81790F4809137
S1130970D7016091D701DD27C81BD10954E65C9FDC
S1130980C0015D9F900D112470E00E941209FB01CB
S113099002C0E0E0F0E08091D6018417A8F48091D1
S11309A0D6014091D6013327281B310954E6529FC2
S11309B0C001539F900D11246FEF70E0641B710907
S11309C00E9412099B0118C08091D601481790F427
S11309D08091D6016091D6013327281B310944E662
S11309E0429FC001439F900D112470E00E941209A0
S11309F09B0102C020E030E0BF01C901DF91CF912B
S1130A001F910895CF93DF93CDB7DEB72B970FB621
S1130A10F894DEBF0FBECDBF21E030E03A832983D6
S1130A2092E09B836C838D83CE0101960E94030424
S1130A302B960FB6F894DEBF0FBECDBFDF91CF91DA
S1130A4008950E94A30668E070E08CE091E00E94A3
S1130A50620708950E94A30668E070E085E191E0D2
S1130A600E94620708950E94A30668E070E08FE187
S1130A7091E00E94620708950E94A30668E070E076
S1130A808AE291E00E94620708950E94A30668E04A
S1130A9070E084E391E00E9462070895CF92DF92B0
S1130AA0EF92FF920F931F93CF93DF938C017B01FF
S1130AB06A018CE090E00E943A09EC0119830883F2
S1130AC01D821C821F821E82F986E886C7010E944D
S1130AD085079B878A87DB82CA82F80166817781D2
S1130AE06F5F7F4F660F771F848195810E945B0A39
S1130AF0F8019583848326813781A901440F551F0A
S1130B00FC01E40FF51FD183C0832F5F3F4FF80131
S1130B1037832683CE01DF91CF911F910F91FF90F0
S1130B20EF90DF90CF900895FF920F931F93CF9390
S1130B30DF938CE090E00E943A098C018FE391E00E
S1130B40D80119969C938E9318971B961C921E920B
S1130B501A9717961C921E92169711961C921E9223
S1130B6013961C921E92129741E255E069E471E0DB
S1130B70C8010E944E0545E455E062E571E0C801F4
S1130B800E944E054CE355E06DE571E0C8010E94FA
S1130B904E0543E355E067E671E0C8010E944E0547
S1130BA04AE255E062E771E0C8010E944E0568E040
S1130BB070E08CE791E00E946207F80186819781DA
S1130BC0181619062CF56894FF24F1F8C0E0D0E05B
S1130BD08F2D0E94310660910A0170910B01CE01A4
S1130BE0880F991FD8011496ED91FC911597E80F81
S1130BF0F91F0190F081E02D808591850E946207A4
S1130C002196F394F80186819781C817D90704F3D4
S1130C1082E00E94310660910A0170910B01D801B3
S1130C201496ED91FC9115970190F081E02D828549
S1130C3093850E9462071093D5010093D401DF913C
S1130C40CF911F910F91FF900895E0910801F091C9
S1130C50090190E29083E0910801F09109018083F9
S1130C600895883048F085E891E09F938F930E941F
S1130C70800B0F900F90089590EB980FE09108016E
S1130C80F0910901908390E09093D9018093D80169
S1130C90089588234CF485E891E09F938F930E94F4
S1130CA0800B0F900F900895282F2F70982F9295F6
S1130CB09F70905FE0910801F09109019083E091A9
S1130CC00801F0910901208390E09093DB01809367
S1130CD0DA010895CF93C62F0E9431068C2F0E940B
S1130CE04906CF91089560E080E00E946A06089565
S1130CF060E080E00E946A0680E00E94250680E0B1
S1130D0090E0E0910601F0910701E80FF91F1082CD
S1130D100196811524E09207A1F760E084E00E9427
S1130D206A0680E090E0E0910601F0910701E80F87
S1130D30F91F10820196811524E09207A1F782E041
S1130D400E94250608950E9473060E94780682E098
S1130D500E942506089580526630710509F43BC04F
S1130D606830710529F06430710509F080C05BC0FA
S1130D7020910A0130910B01121613060CF077C072
S1130D8090E0880F991F880F991F880F991F20E002
S1130D9030E0A8EDB1E0F901E80FF91FEA5DFB4F7F
S1130DA045915491E0910601F09107014083129618
S1130DB04D915C9113974F5F5F4F13965C934E93E5
S1130DC012972F5F3F4F40910A0150910B01241756
S1130DD035070CF3089590E09C01220F331F820F16
S1130DE0931F880F991F20E030E0A8EDB1E0F901CE
S1130DF0E80FF91FE451FE4F45915491E09106012B
S1130E00F0910701408312964D915C9113974F5FC7
S1130E105F4F13965C934E9312972F5F3F4F26308C
S1130E20310529F7089590E0880F991F880F991FBD
S1130E3020E030E0A8EDB1E0F901E80FF91FE05936
S1130E40FF4F45915491E0910601F09107014083D1
S1130E5012964D915C9113974F5F5F4F13965C937D
S1130E604E9312972F5F3F4F2430310529F7089591
S1130E70CF92DF92EF92FF920F931F93CF93DF9362
S1130E80EC017B018C01C12CD12C09C0B701F80104
S1130E9081918F010E94AB06FFEFCF1ADF0AFE019A
S1130EA001900020E9F73197EC1BFD0BCE16DF060D
S1130EB068F3DF91CF911F910F91FF90EF90DF9036
S1130EC0CF9008950F931F93CF93DF93EC018B0181
S1130ED0FC0101900020E9F73197E81BF90B6E9FA4
S1130EE090016F9F300D7E9F300D1124369527950C
S1130EF08FE3821B0E944906B801CE010E94380785
S1130F00DF91CF911F910F9108950F931F93CF936A
S1130F10DF938C0184E190E00E943A09EC018EE3B6
S1130F2090E099838883B801CE010E942A0BFE01C8
S1130F3001900020E9F731978CE390E0918380835E
S1130F40CE01DF91CF911F910F910895E091080197
S1130F50F09109018EEA8083E0910801F091090182
S1130F6081EA8083E0910801F09109018AED808390
S1130F70E0910801F091090182E18083E091080188
S1130F80F091090188EC8083E0910801F091090156
S1130F9088EA8083E0910801F09109018FE380835E
S1130FA0E0910801F091090185ED8083E091080149
S1130FB0F091090180E88083E0910801F091090132
S1130FC081E88083E0910801F091090180E5808344
S1130FD0E0910801F091090189ED8083E091080115
S1130FE0F091090181E28083E0910801F091090107
S1130FF080E28083E0910801F091090182E080831E
S1131000E0910801F09109018BED8083E0910801E2
S1131010F091090180E38083E0910801F0910901D6
S11310208DEA8083E0910801F09109011082E0913A
S11310300801F091090184EA8083E0910801F091AC
S1131040090186EA8083E0910801F09109018FEAA1
S113105080830E94780660E080E00E946A0608951A
S113106080EB87BB8A9A81E58DB9C49A08958FB9BC
S1131070779BFECF089585E48FB9779BFECF8FB120
S1131080089590BD89B988E18AB98EE880BD60E091
S113109070E082E598E00E94350B08955D9BFECFD9
S11310A08CB908950E944E0880E090E0089585B7B9
S11310B0806885BF80B7806280BF0895FB01F05FC0
S11310C080830895905FFC0180810895CF93C82F99
S11310D0C49883E00E9437088C2F0E9437080E942E
S11310E03B08C49ACF910895CF93DF93D82FC62F8E
S11310F0C49882E00E9437088D2F0E9437088C2FF5
S11311000E943708C49ADF91CF910895C4980E9431
S11311103708C49A0895C49880EC0E943708C49A8A
S11311208FE39CE90197F1F700C0000008950E9445
S113113030080E948B088FE39FE10197F1F700C00C
S113114000008EE00E946608982F907E903861F02F
S11311501F928F9386EA91E09F938F930E94800B56
S11311600F900F900F900F9008958FE190E00E94E0
S113117041080E9457080E94A6070E9494050E94F5
S1131180C5030E943C040E94E10385E08A95F1F7BF
S113119000000E948C040E940205F7CFCF93DF93D6
S11311A0EB0121971C161D0614F561507048660F5B
S11311B0771F680F791F17C0FC012191319140817D
S11311C051814217530734F4DF0112974D935C9316
S11311D031832083E617F70781F72197625071095D
S11311E06817790721F01C161D0634F3F6CFDF913A
S11311F0CF9108950F931F93CF93DF938C01EB014D
S11312000E94CE082196CE010AF40196FC01EE7FDD
S11312103297E00FF11F80819181DF91CF911F916F
S11312200F91089597FB072E16F4009407D077FDCD
S113123009D00E94260907FC05D03EF490958195BB
S11312409F4F0895709561957F4F0895AA1BBB1B0E
S113125051E107C0AA1FBB1FA617B70710F0A61BB2
S1131260B70B881F991F5A95A9F780959095BC01D3
S1131270CD0108950F931F93CF93DF93823091058F
S113128010F482E090E0E091DE01F091DF0120E0D3
S113129030E0A0E0B0E0309719F140815181028143
S11312A0138148175907C8F08417950769F41097F4
S11312B031F012960C93129713961C9327C0009347
S11312C0DE011093DF0122C02115310519F0421708
S11312D0530718F49A01BD01EF01DF01F801DBCFD8
S11312E021153105F9F0281B390B2430310580F420
S11312F08A819B816115710521F0FB0193838283AF
S113130004C09093DF018093DE01FE01329644C055
S1131310FE01E20FF31F8193919322503109398327
S113132028833AC02091DC013091DD01232B41F464
S113133020910201309103013093DD012093DC01FF
S113134020910001309101012115310541F42DB79F
S11313503EB74091040150910501241B350BE091E7
S1131360DC01F091DD01E217F307A0F42E1B3F0B23
S11313702817390778F0AC014E5F5F4F2417350703
S113138048F04E0F5F1F5093DD014093DC018193C1
S1131390919302C0E0E0F0E0CF01DF91CF911F9183
S11313A00F910895CF93DF93009709F481C0FC0156
S11313B0329713821282A091DE01B091DF0110975F
S11313C081F420813181820F931F2091DC013091BF
S11313D0DD012817390751F5F093DD01E093DC01B5
S11313E067C0ED0120E030E0CE17DF0740F44A810A
S11313F05B819E0141155105F1F0EA01F5CFD383DC
S1131400C28340815181840F951FC817D90759F4AD
S113141088819981840F951F0296918380838A81A4
S11314209B81938382832115310529F4F093DF0195
S1131430E093DE013DC0E901FB83EA8349915991C0
S1131440C40FD51FEC17FD0761F480819181840FCF
S1131450951F0296E90199838883828193819B83F6
S11314608A83E0E0F0E012968D919C9113970097A7
S113147019F0FD01DC01F7CF8D919C9111979D012D
S11314802E5F3F4F820F931F2091DC013091DD01CD
S11314902817390769F4309729F41092DF01109264
S11314A0DE0102C013821282B093DD01A093DC013D
S11314B0DF91CF910895A0E0B0E0E1E6FAE00C946A
S11314C04E0EEC01009721F4CB010E943A09B4C0FE
S11314D0FC01E60FF71F9C0122503109E217F307C4
S11314E008F4A8C0D9010D911C911197061717078C
S11314F0B0F00530110508F49BC0C80104978617A5
S1131500970708F495C002501109061B170B0193A5
S113151011936D937C93CF010E94D20989C05B0122
S1131520A01AB10A4C01800E911EA091DE01B09167
S1131530DF01612C712CE12CF12C109709F446C0C9
S11315408D919C911197A815B905B1F56C0142E0F4
S1131550C40ED11CCA14DB0478F14C018A189B0810
S1131560640142E0C40ED11C1296BC9012971396EB
S1131570AC91B5E0CB16D10440F0B282A383918242
S11315808082D9016D937C9309C00E5F1F4F800F39
S1131590911FF90191838083EB2DFA2FE114F1045B
S11315A031F0D7011396FC93EE93129741C0F09358
S11315B0DF01E093DE013CC06816790608F43C01C3
S11315C07D0112960D90BC91A02DB7CF8091DC01C6
S11315D09091DD0188169906E1F466167706C8F441
S11315E08091000190910101009741F48DB79EB75D
S11315F04091040150910501841B950BE817F907EC
S1131600C8F4F093DD01E093DC01F9017183608398
S11316100FC0CB010E943A097C01009759F0A80140
S1131620BE010E94210BCE010E94D209C70104C051
S1131630CE0102C080E090E0CDB7DEB7EEE00C94BE
S11316406A0EFB01DC0102C001900D924150504032
S1131650D8F70895FB01DC010D900020E9F71197FC
S113166001900D920020E1F708950F931F93CF93FB
S1131670DF93009731F46115710519F480E090E06F
S11316803AC08B01EC016EE070E081E090E00E94D2
S1131690770DFC01892B91F380E8838301151105F3
S11316A071F01387028781E883838091E001909130
S11316B0E101892B21F4F093E101E093E00120970B
S11316C0C9F0D187C0878381826083838091E201DE
S11316D09091E301892B71F4F093E301E093E2012B
S11316E08091E4019091E501892B21F4F093E501C7
S11316F0E093E401CF01DF91CF911F910F91089501
S1131700A0E0B0E0E6E8FBE00C945A0EAE014B5FBB
S11317105F4FFA0161917191AF018091E201909163
S1131720E3010E94960BE2E00C94760EABE0B0E08D
S1131730ECE9FBE00C944A0E6C017B018A01FC018C
S113174017821682838181FFCCC1CE0101963C01B0
S1131750F6019381F70193FD859193FF81917F01B8
S1131760882309F4BAC1853239F493FD859193FF36
S113177081917F01853229F4B60190E00E94B00D79
S1131780E7CF912C212C312CFFE1F315D8F08B32CB
S113179079F038F4803279F08332A1F4232D20617A
S11317A01DC08D3261F0803369F4232D216016C091
S11317B0832D8260382EE32DE4603E2E2AC0F32D63
S11317C0F8601DC037FC2DC020ED280F2A3040F0F2
S11317D08E32B9F436FC81C1232D2064322E19C017
S11317E036FE06C08AE0989E200D1124922E11C068
S11317F0EAE02E9E200D1124222EF32DF0623F2EBE
S113180008C08C3621F4832D8068382E02C08836B7
S113181041F4F70193FD859193FF81917F0181113B
S1131820B3CF982F9F7D9554933028F40C5F1F4FAE
S11318309FE399830DC0833631F0833771F083358C
S113184009F059C021C0F801808189830E5F1F4FC0
S113185088248394912C530113C02801F2E04F0E85
S1131860511CF801A080B18036FE03C0692D70E0E0
S113187002C06FEF7FEFC5010E94A50D4C018201EC
S1131880F32DFF773F2E16C0280122E0420E511C93
S1131890F801A080B18036FE03C0692D70E002C05B
S11318A06FEF7FEFC5010E94930D4C01F32DF0689B
S11318B03F2E820133FC1BC0822D90E088169906CE
S11318C0B0F4B60180E290E00E94B00D2A94F4CF07
S11318D0F50137FC859137FE81915F01B60190E0F7
S11318E00E94B00D21102A9421E0821A91088114DB
S11318F0910471F7E8C0843611F0893641F5F80196
S113190037FE07C060817181828193810C5F1F4F14
S113191008C060817181072E000C880B990B0E5F43
S11319201F4FF32DFF763F2E97FF09C090958095AA
S1131930709561957F4F8F4F9F4FF0683F2E2AE03F
S113194030E0A3010E94EC0D882E861845C085372F
S113195031F4232D2F7EB22E2AE030E025C0932DC2
S1131960997FB92E8F36C1F018F4883579F0B5C057
S1131970803719F0883721F0B0C0E92FE061BE2E1E
S1131980B4FE0DC0FB2DF460BF2E09C034FE0AC0A6
S1131990292F2660B22E06C028E030E005C020E1E1
S11319A030E002C020E132E0F801B7FE07C06081F8
S11319B07181828193810C5F1F4F06C060817181A8
S11319C080E090E00E5F1F4FA3010E94EC0D882E73
S11319D08618FB2DFF773F2E36FE0DC0232D2E7F5C
S11319E0A22E891458F434FE0BC032FC09C0832D96
S11319F08E7EA82E05C0B82CA32C03C0B82C01C021
S1131A00B92CA4FE0FC0FE01E80DF11D80818033C6
S1131A1021F49A2D997EA92E09C0A2FE06C0B39482
S1131A20B39404C08A2D867809F0B394A3FC11C042
S1131A30A0FE06C0B21488F4280C922C9B180EC089
S1131A40B21460F4B60180E290E00E94B00DB39449
S1131A50F7CFB21418F42B1802C0982C212CA4FE32
S1131A6010C0B60180E390E00E94B00DA2FE17C042
S1131A70A1FC03C088E790E002C088E590E0B601CD
S1131A800CC08A2D867859F0A1FE02C08BE201C0F9
S1131A9080E2A7FC8DE2B60190E00E94B00D8914AB
S1131AA038F4B60180E390E00E94B00D9A94F7CF29
S1131AB08A94F301E80DF11D8081B60190E00E9443
S1131AC0B00D8110F5CF222009F442CEB60180E298
S1131AD090E00E94B00D2A94F6CFF601868197819A
S1131AE002C08FEF9FEF2B96E2E10C94660E0F93EA
S1131AF01F93CF93DF93869F8001879F100D969F3E
S1131B00100D1124C8010E943A09EC01009729F034
S1131B10A80160E070E00E949E0DCE01DF91CF919C
S1131B201F910F910895FC010590615070400110C0
S1131B30D8F7809590958E0F9F1F0895DC0101C002
S1131B406D9341505040E0F70895FC01615070409E
S1131B5001900110D8F7809590958E0F9F1F0895DE
S1131B600F931F93CF93DF93FB01238121FD03C0C8
S1131B708FEF9FEF2CC022FF16C04681578124812E
S1131B8035814217530744F4A081B1819D012F5F31
S1131B903F4F318320838C93268137812F5F3F4FC2
S1131BA03783268314C08B01EC01FB010084F1858B
S1131BB0E02D0995892BE1F6D80116968D919C911B
S1131BC01797019617969C938E931697CE01DF91E3
S1131BD0CF911F910F910895FA01AA27283051F14E
S1131BE0203181F1E8946F936E7F6E5F7F4F8F4F4A
S1131BF09F4FAF4FB1E03ED0B4E03CD0670F781FA9
S1131C00891F9A1FA11D680F791F8A1F911DA11D8D
S1131C106A0F711D811D911DA11D20D009F46894C6
S1131C203F912AE0269F11243019305D3193DEF66E
S1131C30CF010895462F4770405D4193B3E00FD024
S1131C40C9F7F6CF462F4F70405D4A3318F0495D0F
S1131C5031FD4052419302D0A9F7EACFB4E0A695F2
S1131C609795879577956795BA95C9F70097610514
S1131C70710508959B01AC010A2E0694579547956A
S1131C8037952795BA95C9F7620F731F841F951F5F
S1131C90A01D08952F923F924F925F926F927F9270
S1131CA08F929F92AF92BF92CF92DF92EF92FF9268
S1131CB00F931F93CF93DF93CDB7DEB7CA1BDB0B14
S1131CC00FB6F894DEBF0FBECDBF09942A883988B9
S1131CD048885F846E847D848C849B84AA84B984C0
S1131CE0C884DF80EE80FD800C811B81AA81B981CC
S1131CF0CE0FD11D0FB6F894DEBF0FBECDBFED01E0
S1091D000895F894FFCFE2
S1131D060000E60120000012001008004E6577204E
S1131D1647616D6500446562756767696E6700446F
S1131D266966666963756C74790043616C6962728D
S1131D3661746500486967682053636F7265004D76
S1131D4661696E204D656E75004E45572047414DBD
S1131D564500484947482053434F52450043414CA8
S1131D6649425241544500444946464943554C5418
S1131D765900444542554747494E470050494E4746
S1131D86504F4E470064656E6E6520706F736973BD
S1131D966A6F6E656E20656B7369737465726572BE
S1131DA620696B6B65004E6F7420696E20636F6EDD
S1131DB6666967206D6F646520616674657220725A
S1131DC665736574212076616C75653A20257820E3
S1071DD60A0D0000EE
S9030000FC
