S01000004279676765726E322E7372656314
S11300000C9438000C9455000C9455000C94550035
S11300100C9455000C9455000C9455000C94550008
S11300200C9455000C9455000C9455000C945500F8
S11300300C9455000C9455000C9455000C945500E8
S11300400C9455000C9455000C9455000C945500D8
S11300500C9455000C9455000C9455000C945500C8
S11300600C9455000C9455000C9455000C945500B8
S113007011241FBECFEFD4E0DEBFCDBF11E0A0E05E
S1130080B1E0E8EDF0E002C005900D92A030B107B8
S1130090D9F721E0A0E0B1E001C01D92A030B20781
S11300A0E1F70E9462000C946A000C94000085B78A
S11300B0806885BF80B7806280BF0895FB01F05FD0
S11300C0808308950E94570060E070E080E10E9400
S10B00D05E00F8CFF894FFCFA5
S9030000FC
