:100000000C94F3050C9410060C9410060C94100636
:100010000C9410060C9410060C9410060C94100608
:100020000C9410060C9410060C9410060C941006F8
:100030000C9410060C9410060C9410060C941006E8
:100040000C94AA0C0C9410060C9410060C94100638
:100050000C9410060C9410060C9410060C941006C8
:100060000C9410060C9410060C9410060C941006B8
:10007000360235022D0225021A0210020F020E026C
:100080000D020C020202F801EB01DF01DE01DD01CD
:10009000DC01DB01D001C401B801AB01AA01A90157
:1000A000A8019B0196019501940193019201910190
:1000B000860185017C017501740173017201710172
:1000C00070016F0164015B015A0159015801570128
:1000D000560155014C0145014401430142014101D2
:1000E00040013F013801310130012F012E012D0166
:1000F0002C012B011F011E01110102010101000150
:10010000000054484520434F4E54524F4C4C4552EA
:1001100000444F204E4F5420544F55434800004355
:10012000414C4942524154494E47000000000000F2
:100130000043484F53454E00534C4944455200003C
:10014000000000000043484F53454E004A4F5953AA
:100150005449434B000000000000003E534C49440A
:1001600045523C003E4A4F59535449434B3C0000D2
:100170000000000000534C49444552004A4F595377
:100180005449434B0000434F4E54524F4C4C455240
:100190000000000000004845524500494E535452AB
:1001A000554354494F4E5300000000425554544F9C
:1001B0004E205354415254005052455353205249FB
:1001C000474854004F4E20534F4C4F4E4F49440028
:1001D000504C4143452042414C4C00000000003E41
:1001E00043414C4942524154453C003E434F4E54DA
:1001F000524F4C4C45523C003E32504C41594552B6
:100200003C003E31504C415945523C00000000003A
:1002100043414C49425241544500434F4E54524F82
:100220004C4C45520032504C415945520031504CD3
:1002300041594552000050494E47504F4E4700002B
:100240000000000000000000065F5F0600000000E4
:1002500007070007070000147F7F147F7F14002426
:100260002E6B6B3A120000466630180C6662003046
:100270007A4F5D377A480004070300000000000051
:100280001C3E63410000000041633E1C000000086A
:100290002A3E1C1C3E2A0808083E3E0808000000B2
:1002A000A0E060000000000808080808080000003E
:1002B000006060000000006030180C060301003E82
:1002C0007F594D7F3E000042427F7F4040000062E8
:1002D0007359496F660000226349497F3600001850
:1002E0001C16137F7F1000276745457D3900003CB1
:1002F0007E4B4979300000036371190F0700003607
:100300007F49497F360000064F49693F1E000000C3
:10031000006C6C0000000000A0EC6C0000000018F5
:1003200024429924428100141414141414000081EE
:1003300042249942241800020351590F0600003E3E
:100340007F415D5D1F1E00FF3E000000000000FFBA
:10035000083E0000000000FF08083E00000000FF0B
:100360000808083E000000FF080808083E0000FFDB
:1003700008080808083E00FF0808080808083E00AA
:10038000000000000000000000000000000000006D
:10039000000000000000000000000000000000005D
:1003A000000000000000000000000000000000004D
:1003B000000000000000000000000000000000003D
:1003C000000000000000000000000000000000002D
:1003D000000000000000000000000000000000001D
:1003E000000000000000000000000000000000000D
:1003F00000000000000000000000000000000000FD
:1004000000000000000000000000000000000000EC
:1004100000000000000000000000000000000000DC
:1004200000000000000000000000000000000000CC
:10043000000000000000000000000000000080003C
:1004400000000000000000000000000000000000AC
:10045000000000000000000000000000000000009C
:10046000000000000000000000000000000000008C
:100470000000000300000000000000F80000000081
:1004800000000004000000004400004000000000E4
:10049000C400FD7D000000417F7F10386C440000E7
:1004A000417F7F400000007C7C0C180C7C78007C35
:1004B0007C04047C780000387C44447C3800008450
:1004C000FCF8A4243C1800183C24A4F8FC84004444
:1004D0007C78441C180000485C54547424000000CC
:1004E000043E7F442400003C7C40403C7C40001C97
:1004F0003C60603C1C00003C7C6030607C3C004404
:100500006C3810386C44009CBCA0A0FC7C00004CF3
:1005100064745C4C64000008083E774141000000B0
:10052000000077770000004141773E080800000294
:100530000301030203010000000000005C00000C46
:10054000000C007C287C2858DC6800241048002817
:10055000542840000C000000788400847800005487
:10056000385400107C100080400000101010000073
:1005700040000060100C0038543800487C400048AF
:1005800064580044542C001C107C005C5424003837
:1005900054240064140C0068542C004854380000A3
:1005A0004800008048000010284400282828004403
:1005B0002810000454080038445C00781478007C4B
:1005C000542800384428007C4438007C5444007C83
:1005D000140400384474007C107C00447C440020E7
:1005E000403C007C106C007C4040007C187C007813
:1005F000103C00384438007C1408003844B8007CB3
:1006000014680048542400047C04007C407C003CB6
:10061000603C007C307C006C106C000C700C006442
:10062000544C00007C44000C106000447C00000826
:100630000408008080800000040800304878007CB6
:100640004830003048480030487C00306850001086
:1006500078140090A878007C0870005074400080E6
:100660008074007C106800447C400078107800782A
:1006700008700030483000F82810003048F8007842
:1006800010080050582800083C48003840780038CE
:10069000403800782078004830480098A07800481A
:1006A00068580010788400007C00008478100008EE
:1006B00004080400000000000000005F00000000CB
:1006C0000700070000147F147F1400242A7F2A12D9
:1006D00000231308646200364955225000000503C8
:1006E000000000001C224100000041221C00000804
:1006F0002A1C2A080008083E0808000050300000A4
:1007000000080808080800006060000000201008C9
:100710000402003E5149453E0000427F4000004235
:1007200061514946002141454B31001814127F1098
:10073000002745454539003C4A49493000017109C7
:10074000050300364949493600064949291E00007B
:100750003636000000005636000000081C2A080843
:100760000014141414140008082A1C080002015173
:10077000090600324979413E007E1111117E007F49
:1007800049494936003E41414122007F4141221CF6
:10079000007F49494941007F09090101003E41416B
:1007A0005132007F0808087F0000417F410000208F
:1007B00040413F01007F08142241007F40404040FB
:1007C000007F0204027F007F0408107F003E414149
:1007D000413E007F09090906003E4151215E007F2C
:1007E000091929460046494949310001017F0101A3
:1007F000003F4040403F001F2040201F007F201846
:10080000207F00631408146300030478040300616C
:10081000514945430000007F414100020408102077
:100820000041417F000000040201020400404040FA
:100830004040000001020400002054545478007F1E
:100840004844443800384444442000384444487FF5
:1008500000385454541800087E090102000814544A
:10086000543C007F080404780000447D40000020D0
:1008700040443D0000007F1028440000417F4000BC
:10088000007C04180478007C080404780038444490
:100890004438007C1414140800081414187C007CDC
:1008A0000804040800485454542000043F444020E5
:1008B000003C4040207C001C2040201C003C40307C
:1008C000403C004428102844000C5050503C004448
:1008D00064544C440000083641000000007F0000D2
:1008E0000000413608000002010302010000000080
:1008F000000000000000065F5F0600000000070720
:100900000007070000147F7F147F7F1400242E6BE4
:100910006B3A120000466630180C666200307A4F5F
:100920005D377A48000407030000000000001C3E09
:1009300063410000000041633E1C000000082A3EA5
:100940001C1C3E2A0808083E3E0808000000A0E0E3
:1009500060000000000808080808080000000060A7
:1009600060000000006030180C060301003E7F5953
:100970004D7F3E000042427F7F404000006273593D
:10098000496F660000226349497F360000181C1633
:10099000137F7F1000276745457D3900003C7E4B63
:1009A0004979300000036371190F070000367F4951
:1009B000497F360000064F49693F1E000000006C69
:1009C0006C0000000000A0EC6C0000000018244245
:1009D0009924428100141414141414000081422438
:1009E0009942241800020351590F0600003E7F412E
:1009F0005D5D1F1E007C7E13137E7C0000417F7FA7
:100A000049497F36001C3E634141632200417F7F9C
:100A100041637F1C00417F7F495D416300417F7FCF
:100A2000491D0103001C3E6341517372007F7F0822
:100A3000087F7F000000417F7F4100000030704050
:100A4000417F3F0100417F7F081C776300417F7F2A
:100A500041406070007F7F060C067F7F007F7F062D
:100A60000C187F7F001C3E6341633E1C00417F7F6A
:100A700049090F06001E3F21717F5E0000417F7F04
:100A800019396F460026674D597B32000003417FBC
:100A90007F410300007F7F40407F7F00001F3F6059
:100AA000603F1F00007F7F3018307F7F0063771C1E
:100AB000081C776300074F78784F07000067735969
:100AC0004D47637100007F7F414100000001030634
:100AD0000C183060000041417F7F000000080C06C8
:100AE00003060C08008080808080808080000003E6
:100AF0000704000000207454543C784000413F7FBC
:100B000044447C3800387C44446C280000307848E9
:100B1000493F7F4000387C54545C180000487E7F79
:100B2000490302000098BCA4A4F87C0400417F7F24
:100B300008047C780000447D7D4000000040C484AF
:100B4000FD7D000000417F7F10386C440000417F34
:100B50007F400000007C7C0C180C7C78007C7C04BE
:100B6000047C780000387C44447C38000084FCF825
:100B7000A4243C1800183C24A4F8FC8400447C788D
:100B8000441C180000485C54547424000000043EC7
:100B90007F442400003C7C40403C7C40001C3C6086
:100BA000603C1C00003C7C6030607C3C00446C3845
:100BB00010386C44009CBCA0A0FC7C00004C647409
:100BC0005C4C64000008083E7741410000000000D2
:100BD00077770000004141773E08080000020301DA
:100BE00003020301000011241FBECFEFD4E0DEBFDB
:100BF000CDBF11E0A0E0B1E0EAEBF6E202C0059063
:100C00000D92AE3DB107D9F721E0AEEDB1E001C0E4
:100C10001D92AA3FB207E1F70E94860D0C945B1368
:100C20000C9400008C9AF894EBE8F0E080818064EA
:100C30008083EAE8F0E08081816080838081886041
:100C4000808381E090E09093870080938600789481
:100C500008950E9412060895CF93C82F0E94280D70
:100C600060E074E08C2F80680E942F0D80E18A95EF
:100C7000F1F700C080E094E00E94330D90E19A9576
:100C8000F1F700C090E0CF9108950E94680D61E0F7
:100C900088E20E94450D65EB89E20E94450D63E400
:100CA0008AE20E94450D60E08FE00E94450DF894B5
:100CB00085B7826085BF85B78E7F85BF8BB780641F
:100CC0008BBF789463E08BE20E94450D0895FF92FC
:100CD0000F931F93CF93DF93EC0108811981B80123
:100CE00076956795769567957695679581E30E94E9
:100CF000450D602F6295660F607E82E30E94450D70
:100D0000FA806F2D6F7085E30E94450DFF2079F00A
:100D10008E010D5F1F4FD6E3DF0DC6E3F801619131
:100D20008F018C2F0E94450DCF5FCD13F7CF81E847
:100D30000E94570DDF91CF911F910F91FF90089561
:100D4000CF92DF92EF92FF920F931F93CF93DF9397
:100D5000CDB7DEB7C059D1400FB6F894DEBF0FBE95
:100D6000CDBF8E0107531F4FCE0101967C016E014E
:100D70009FE6C91A9EEFD90A81E090E00E942C06F6
:100D8000F801819391938F0180E090E00E942C06FE
:100D9000F701819391937F010C151D0569F764E6B6
:100DA00070E0CE0187539F4F0E94CD0D8093E901E3
:100DB00064E670E0CE0101960E94CD0D8093E801BB
:100DC000C057DE4F0FB6F894DEBF0FBECDBFDF9128
:100DD000CF911F910F91FF90EF90DF90CF900895EA
:100DE0001F93CF93DF9381E090E00E942C06EC01EB
:100DF00080E090E00E942C069C01482F8091E90140
:100E00008C17A8F48091E9015091E901DD27C81BF6
:100E1000D10964E66C9FC0016D9F900D11246FEFA6
:100E200070E0651B71090E94E50DFB0118C08091FF
:100E3000E901C81790F48091E9016091E901DD278B
:100E4000C81BD10954E65C9FC0015D9F900D112421
:100E500070E00E94E50DFB0102C0E0E0F0E080914F
:100E6000E8018417A8F48091E8014091E801332754
:100E7000281B310954E6529FC001539F900D112445
:100E80006FEF70E0641B71090E94E50D9B0118C0B3
:100E90008091E801481790F48091E8016091E801A1
:100EA0003327281B310944E6429FC001439F900D20
:100EB000112470E00E94E50D9B0102C020E030E0AB
:100EC000BF01C901DF91CF911F910895CF93DF93A7
:100ED000CDB7DEB72B970FB6F894DEBF0FBECDBFF0
:100EE00021E030E03A83298393E09B836C838D83F8
:100EF00086B381708E831F928F938CE091E09F93D5
:100F00008F930E945A10CE0101960E9467060F909F
:100F10000F900F900F902B960FB6F894DEBF0FBE78
:100F2000CDBFDF91CF910895EF92FF921F93CF93A2
:100F3000DF93CDB7DEB760970FB6F894DEBF0FBE74
:100F4000CDBF0E94C20A0F2EF0EAEF2EF0E0FF2E76
:100F5000F02D10E0812F0E94500AF70165917491E5
:100F6000CE0101960E94F40F68E070E0CE01019678
:100F70000E94B90B1F5F82E0E80EF11C183051F798
:100F800060960FB6F894DEBF0FBECDBFDF91CF9154
:100F90001F91FF90EF900895EF92FF921F93CF93D0
:100FA000DF93CDB7DEB760970FB6F894DEBF0FBE04
:100FB000CDBF0E94C20A0F2EF0EBEF2EF0E0FF2E05
:100FC000F02D10E0812F0E94500AF7016591749175
:100FD000CE0101960E94F40F68E070E0CE01019608
:100FE0000E94B90B1F5F82E0E80EF11C183051F728
:100FF00082E00E94500AE4ECF0E065917491CE0129
:1010000001960E94F40F68E070E0CE0101960E9404
:10101000B90B60960FB6F894DEBF0FBECDBFDF915F
:10102000CF911F91FF90EF900895CF93DF93CDB7AD
:10103000DEB76B970FB6F894DEBF0FBECDBF0E9430
:10104000C20A0F2EF0E9EF2EF0E0FF2EF02D10E097
:10105000812F0E94500AF70165917491CE0101968B
:101060000E94F40F68E070E0CE0101960E94B90B77
:101070001F5F82E0E80EF11C183051F7B09BFECFE5
:1010800081E090E09A8B898B83E08B8B86B38170B3
:101090008E8BCE0141960E94670680E291E09F937D
:1010A0008F930E945A100F900F900E94F0060E949A
:1010B0006607FBCFEF92FF921F93CF93DF93CDB7DD
:1010C000DEB760970FB6F894DEBF0FBECDBF0E94AB
:1010D000C20A0F2EF0EDEF2EF0E0FF2EF02D10E003
:1010E000812F0E94500AF70165917491CE010196FB
:1010F0000E94F40F68E070E0CE0101960E94B90BE7
:101100001F5F22E0E20EF11C183051F78FEF93EDD4
:1011100020E3815090402040E1F700C00000A09102
:10112000EE01B091EF01B093DF01A093DE011092C8
:10113000E1011092E0011296ED91FC9113971A963D
:101140008D919C911B97099560960FB6F894DEBF20
:101150000FBECDBFDF91CF911F91FF90EF9008950B
:10116000EF92FF921F93CF93DF93CDB7DEB76097D7
:101170000FB6F894DEBF0FBECDBF0E94C20A0F2E7D
:10118000F0EEEF2EF0E0FF2EF02D10E0812F0E9408
:10119000500AF70165917491CE0101960E94F40FF7
:1011A00068E070E0CE0101960E94B90B1F5F22E05B
:1011B000E20EF11C183051F78FEF93ED20E38150D0
:1011C00090402040E1F700C00000A091EE01B091F6
:1011D000EF01B093DF01A093DE011092E1011092C4
:1011E000E0011296ED91FC9113971A968D919C91C6
:1011F0001B97099560960FB6F894DEBF0FBECDBF62
:10120000DF91CF911F91FF90EF900895EF92FF92A1
:101210001F93CF93DF93CDB7DEB760970FB6F894E7
:10122000DEBF0FBECDBF0E94C20A0F2EF0EFEF2E21
:10123000F0E0FF2EF02D10E0812F0E94500AF70100
:1012400065917491CE0101960E94F40F68E070E000
:10125000CE0101960E94B90B1F5F22E0E20EF11C45
:10126000183051F78FEF93ED20E3815090402040EC
:10127000E1F700C00000A091EE01B091EF01B09342
:10128000DF01A093DE011092E1011092E0011296BD
:10129000ED91FC9113971A968D919C911B9709954E
:1012A00060960FB6F894DEBF0FBECDBFDF91CF9131
:1012B0001F91FF90EF900895AF92BF92CF92DF926F
:1012C000EF92FF920F931F93CF93DF938C017B01DB
:1012D0005A0169018EE090E00E940D0EEC01198325
:1012E00008831D821C821F821E82FB86EA86C7013C
:1012F0000E94DC0B9D878C87BB82AA82D986C88618
:10130000F801668177816F5F7F4F660F771F848159
:1013100095810E942E0FF801958384832681378161
:10132000A901440F551FFC01E40FF51FD183C083B1
:101330002F5F3F4FF80137832683CE01DF91CF9196
:101340001F910F91FF90EF90DF90CF90BF90AF90E3
:101350000895CF92DF92EF92FF921F93CF93DF9386
:10136000CDB7DEB760970FB6F894DEBF0FBECDBF26
:101370008EE090E00E940D0E6C0182E391E0F60198
:1013800093878287158614861782168211821082AF
:10139000138212821186108620E130E045E158E088
:1013A0006CE371E0C6010E945C0928E130E044E989
:1013B00057E064E471E0C6010E945C0920E230E07D
:1013C0004CEC57E06CE471E0C6010E945C097C01C2
:1013D00020E330E04AE558E067E571E00E945C09EF
:1013E00028E330E040EB58E060E671E0C7010E947E
:1013F0005C0920E430E046E059E067E671E0C601B0
:101400000E945C090E94C20A0F2EF0E7EF2EF0E066
:10141000FF2EF02D10E0812F0E94500AF7016591F8
:101420007491CE0101960E94F40F68E070E0CE0145
:1014300001960E94B90B1F5FF2E0EF0EF11C16300F
:1014400051F782E00E94500AE4E8F0E0659174915F
:10145000CE0101960E94F40F68E070E0CE01019683
:101460000E94B90BD092DF01C092DE0160960FB6E8
:10147000F894DEBF0FBECDBFDF91CF911F91FF90DB
:10148000EF90DF90CF900895E0910801F09109016D
:1014900090E29083E0910801F09109018083089522
:1014A000883048F080E891E09F938F930E945A1013
:1014B0000F900F90089590EB980FE0910801F09134
:1014C0000901908390E09093EB018093EA010895E5
:1014D00088234CF480E891E09F938F930E945A10E8
:1014E0000F900F900895282F2F70982F92959F702E
:1014F000905FE0910801F09109019083E09108016B
:10150000F0910901208390E09093ED018093EC012C
:101510000895CF93C62F0E94500A8C2F0E94680A0C
:10152000CF91089560E080E00E94890A089560E00C
:1015300080E00E94890A80E00E94440A80E090E0F6
:10154000E0910601F0910701E80FF91F1082019662
:10155000811524E09207A1F760E084E00E94890AE7
:1015600080E090E0E0910601F0910701E80FF91F9B
:1015700010820196811524E09207A1F782E00E9473
:10158000440A08950E94920A0E94970A82E00E94EB
:10159000440A089580526430710509F470C01CF447
:1015A000672B89F008956630710509F440C06830F2
:1015B000710509F0B3C020910A0130910B01121698
:1015C000130654F0089520910A0130910B01121670
:1015D00013060CF479C0089590E0880F991F880FC6
:1015E000991F880F991F20E030E0AAEEB1E0F901C1
:1015F000E80FF91FE351F74F45915491E09106012F
:10160000F0910701408312964D915C9113974F5FC3
:101610005F4F13965C934E9312972F5F3F4F40910D
:101620000A0150910B01241735070CF3089590E03F
:101630009C01220F331F820F931F880F991F20E0F8
:1016400030E0AAEEB1E0F901E80FF91FED54F94FCF
:1016500045915491E0910601F09107014083129663
:101660004D915C9113974F5F5F4F13965C934E9330
:1016700012972F5F3F4F2630310529F7089590E0EC
:10168000880F991F880F991F20E030E0AAEEB1E083
:10169000F901E80FF91FE95CFA4F45915491E09187
:1016A0000601F0910701408312964D915C911397CA
:1016B0004F5F5F4F13965C934E9312972F5F3F4F90
:1016C0002430310529F7089590E0880F991F880F7D
:1016D000991F880F991F40E050E0AAEEB1E0FA018F
:1016E000E80FF91FE15CFD4F25913491E09106016F
:1016F000F0910701208312962D913C9113972F5F53
:101700003F4F13963C932E9312974F5F5F4F20915C
:101710000A0130910B01421753070CF30895CF9241
:10172000DF92EF92FF920F931F93CF93DF93EC0121
:101730007B018C01C12CD12C09C0B701F80181912A
:101740008F010E94CA0AFFEFCF1ADF0AFE01019043
:101750000020E9F73197EC1BFD0BCE16DF0668F38E
:10176000DF91CF911F910F91FF90EF90DF90CF907D
:1017700008950F931F93CF93DF93EC018B01FC012E
:1017800001900020E9F73197E81BF90B6E9F90015B
:101790006F9F300D7E9F300D1124369527958FE376
:1017A000821B0E94680AB801CE010E948F0BDF9154
:1017B000CF911F910F9108950F931F93CF93DF93B4
:1017C0008C0184E190E00E940D0EEC018EE390E02C
:1017D00099838883B801CE010E940410FE01019014
:1017E0000020E9F731978CE390E091838083CE016C
:1017F000DF91CF911F910F910895E0910801F09131
:1018000009018EEA8083E0910801F091090181EAE3
:101810008083E0910801F09109018AED8083E091D5
:101820000801F091090182E18083E0910801F091C3
:10183000090188EC8083E0910801F091090188EAB0
:101840008083E0910801F09109018FE38083E091AA
:101850000801F091090185ED8083E0910801F09184
:10186000090180E88083E0910801F091090181E895
:101870008083E0910801F091090180E58083E09187
:101880000801F091090189ED8083E0910801F09150
:10189000090181E28083E0910801F091090180E271
:1018A0008083E0910801F091090182E08083E0915A
:1018B0000801F09109018BED8083E0910801F0911E
:1018C000090180E38083E0910801F09109018DEA2C
:1018D0008083E0910801F09109011082E0910801F4
:1018E000F091090184EA8083E0910801F0910901F7
:1018F00086EA8083E0910801F09109018FEA8083F4
:101900000E94970A60E080E00E94890A089580EBB7
:1019100087BB8A9A81E58DB9C49AC29A08958FB916
:10192000779BFECF089585E48FB9779BFECF8FB16B
:10193000089583B7846083BF83B7886083BF83B70C
:101940008F7B83BF81B7806C81BF89B7816089BF7E
:10195000789408951F920F920FB60F9211242F932F
:101960003F934F935F936F937F938F939F93AF9327
:10197000BF93EF93FF932091E6013091E7012F5F32
:101980003F4F3093E7012093E601C9016AE070E020
:101990000E94E50D892BA9F58091E2019091E30168
:1019A00001969093E3018093E201C90164E670E03F
:1019B0000E94E50D892B69F48091E4019091E50185
:1019C00001969093E5018093E4011092E301109257
:1019D000E2018091E3018F938091E2018F938091E6
:1019E000E5018F938091E4018F9381EA91E09F93C9
:1019F0008F930E945A100F900F900F900F900F909E
:101A00000F90FF91EF91BF91AF919F918F917F9137
:101A10006F915F914F913F912F910F900FBE0F905B
:101A20001F90189590BD89B988E18AB98EE880BD6C
:101A300060E070E083E29DE00E940F1008955D9BDE
:101A4000FECF8CB908950E941F0D80E090E00895AC
:101A500085B7806885BF80B7806280BF0895FB012D
:101A6000F05F80830895905FFC0180810895CF939B
:101A7000C82FC49883E00E948F0C8C2F0E948F0C7B
:101A80000E94930CC49ACF910895CF93DF93D82FDF
:101A9000C62FC49882E00E948F0C8D2F0E948F0C5D
:101AA0008C2F0E948F0CC49ADF91CF910895C49817
:101AB0000E948F0CC49A0895C49880EC0E948F0CE9
:101AC000C49A8FE39CE90197F1F700C000000895E4
:101AD0000E94870C0E945C0D8FE39FE10197F1F754
:101AE00000C000008EE00E94370D982F907E903845
:101AF00061F01F928F9380EB91E09F938F930E94F0
:101B00005A100F900F900F900F9008958FE190E072
:101B10000E94120D0E94280D0E94FD0B0E94A9092F
:101B20000E9429060E94A0060E9445060E94990C68
:101B300085E08A95F1F700000E94F0060E94660792
:101B4000F7CFCF93DF93EB0121971C161D0614F5F9
:101B500061507048660F771F680F791F17C0FC012E
:101B600021913191408151814217530734F4DF01B3
:101B700012974D935C9331832083E617F70781F723
:101B80002197625071096817790721F01C161D060C
:101B900034F3F6CFDF91CF9108950F931F93CF9336
:101BA000DF938C01EB010E94A10D2196CE010AF476
:101BB0000196FC01EE7F3297E00FF11F8081918149
:101BC000DF91CF911F910F91089597FB072E16F487
:101BD000009407D077FD09D00E94F90D07FC05D0CD
:101BE0003EF4909581959F4F0895709561957F4F34
:101BF0000895AA1BBB1B51E107C0AA1FBB1FA61754
:101C0000B70710F0A61BB70B881F991F5A95A9F7A5
:101C100080959095BC01CD0108950F931F93CF93AC
:101C2000DF938230910510F482E090E0E091F201C0
:101C3000F091F30120E030E0A0E0B0E0309719F13E
:101C4000408151810281138148175907C8F08417D8
:101C5000950769F4109731F012960C93129713962A
:101C60001C9327C00093F2011093F30122C02115A9
:101C7000310519F04217530718F49A01BD01EF011D
:101C8000DF01F801DBCF21153105F9F0281B390BF5
:101C90002430310580F48A819B816115710521F022
:101CA000FB019383828304C09093F3018093F2013C
:101CB000FE01329644C0FE01E20FF31F819391931F
:101CC00022503109398328833AC02091F0013091A4
:101CD000F101232B41F42091020130910301309353
:101CE000F1012093F00120910001309101012115B3
:101CF000310541F42DB73EB74091040150910501E3
:101D0000241B350BE091F001F091F101E217F3078C
:101D1000A0F42E1B3F0B2817390778F0AC014E5F5B
:101D20005F4F2417350748F04E0F5F1F5093F101A6
:101D30004093F0018193919302C0E0E0F0E0CF0185
:101D4000DF91CF911F910F910895CF93DF9300976B
:101D500009F481C0FC01329713821282A091F20132
:101D6000B091F301109781F420813181820F931F8C
:101D70002091F0013091F1012817390751F5F093C6
:101D8000F101E093F00167C0ED0120E030E0CE17F3
:101D9000DF0740F44A815B819E0141155105F1F056
:101DA000EA01F5CFD383C28340815181840F951F0F
:101DB000C817D90759F488819981840F951F029615
:101DC000918380838A819B8193838283211531054E
:101DD00029F4F093F301E093F2013DC0E901FB83A4
:101DE000EA8349915991C40FD51FEC17FD0761F49F
:101DF00080819181840F951F0296E90199838883E0
:101E0000828193819B838A83E0E0F0E012968D913A
:101E10009C911397009719F0FD01DC01F7CF8D918C
:101E20009C9111979D012E5F3F4F820F931F209130
:101E3000F0013091F1012817390769F4309729F43E
:101E40001092F3011092F20102C013821282B09339
:101E5000F101A093F001DF91CF910895A0E0B0E0EF
:101E6000E4E3FFE00C942813EC01009721F4CB018C
:101E70000E940D0EB4C0FC01E60FF71F9C0122501A
:101E80003109E217F30708F4A8C0D9010D911C919C
:101E9000119706171707B0F00530110508F49BC01D
:101EA000C80104978617970708F495C002501109D6
:101EB000061B170B019311936D937C93CF010E9426
:101EC000A50E89C05B01A01AB10A4C01800E911EBB
:101ED000A091F201B091F301612C712CE12CF12C55
:101EE000109709F446C08D919C911197A815B905DA
:101EF000B1F56C0142E0C40ED11CCA14DB0478F1C8
:101F00004C018A189B08640142E0C40ED11C129651
:101F1000BC9012971396AC91B5E0CB16D10440F06B
:101F2000B282A38391828082D9016D937C9309C090
:101F30000E5F1F4F800F911FF90191838083EB2D5E
:101F4000FA2FE114F10431F0D7011396FC93EE93CC
:101F5000129741C0F093F301E093F2013CC0681680
:101F6000790608F43C017D0112960D90BC91A02DDC
:101F7000B7CF8091F0019091F10188169906E1F4B4
:101F800066167706C8F480910001909101010097D0
:101F900041F48DB79EB74091040150910501841B17
:101FA000950BE817F907C8F4F093F101E093F001FD
:101FB000F901718360830FC0CB010E940D0E7C017B
:101FC000009759F0A801BE010E94FB0FCE010E94AC
:101FD000A50EC70104C0CE0102C080E090E0CDB7DD
:101FE000DEB7EEE00C944413FB01DC0105900D928A
:101FF0000020E1F70895FB01DC0102C001900D9281
:1020000041505040D8F70895FB01DC010D900020AD
:10201000E9F7119701900D920020E1F708950F93D1
:102020001F93CF93DF93009731F46115710519F475
:1020300080E090E03AC08B01EC016EE070E081E05E
:1020400090E00E945112FC01892B91F380E8838378
:102050000115110571F01387028781E88383809150
:10206000F4019091F501892B21F4F093F501E093AF
:10207000F4012097C9F0D187C08783818260838370
:102080008091F6019091F701892B71F4F093F7019B
:10209000E093F6018091F8019091F901892B21F4E8
:1020A000F093F901E093F801CF01DF91CF911F91F7
:1020B0000F910895A0E0B0E0E0E6F0E10C94341355
:1020C000AE014B5F5F4FFA0161917191AF01809159
:1020D000F6019091F7010E947010E2E00C94501309
:1020E000ABE0B0E0E6E7F0E10C9424136C017B0177
:1020F0008A01FC0117821682838181FFCCC1CE0147
:1021000001963C01F6019381F70193FD859193FFC0
:1021100081917F01882309F4BAC1853239F493FD96
:10212000859193FF81917F01853229F4B60190E07A
:102130000E948A12E7CF912C212C312CFFE1F3155C
:10214000D8F08B3279F038F4803279F08332A1F410
:10215000232D20611DC08D3261F0803369F4232D61
:10216000216016C0832D8260382EE32DE4603E2E60
:102170002AC0F32DF8601DC037FC2DC020ED280FBC
:102180002A3040F08E32B9F436FC81C1232D206410
:10219000322E19C036FE06C08AE0989E200D11240A
:1021A000922E11C0EAE02E9E200D1124222EF32D36
:1021B000F0623F2E08C08C3621F4832D8068382EC3
:1021C00002C0883641F4F70193FD859193FF819118
:1021D0007F018111B3CF982F9F7D9554933028F4C0
:1021E0000C5F1F4F9FE399830DC0833631F0833717
:1021F00071F0833509F059C021C0F80180818983CD
:102200000E5F1F4F88248394912C530113C0280123
:10221000F2E04F0E511CF801A080B18036FE03C0E1
:10222000692D70E002C06FEF7FEFC5010E947F1241
:102230004C018201F32DFF773F2E16C0280122E0CA
:10224000420E511CF801A080B18036FE03C0692DFA
:1022500070E002C06FEF7FEFC5010E946D124C016C
:10226000F32DF0683F2E820133FC1BC0822D90E0DD
:1022700088169906B0F4B60180E290E00E948A12B6
:102280002A94F4CFF50137FC859137FE81915F01E7
:10229000B60190E00E948A1221102A9421E0821A4D
:1022A00091088114910471F7E8C0843611F08936E1
:1022B00041F5F80137FE07C0608171818281938109
:1022C0000C5F1F4F08C060817181072E000C880BC6
:1022D000990B0E5F1F4FF32DFF763F2E97FF09C01E
:1022E00090958095709561957F4F8F4F9F4FF068C7
:1022F0003F2E2AE030E0A3010E94C612882E8618E5
:1023000045C0853731F4232D2F7EB22E2AE030E0F0
:1023100025C0932D997FB92E8F36C1F018F48835DA
:1023200079F0B5C0803719F0883721F0B0C0E92FB7
:10233000E061BE2EB4FE0DC0FB2DF460BF2E09C0BF
:1023400034FE0AC0292F2660B22E06C028E030E0F5
:1023500005C020E130E002C020E132E0F801B7FE24
:1023600007C060817181828193810C5F1F4F06C01D
:102370006081718180E090E00E5F1F4FA3010E9499
:10238000C612882E8618FB2DFF773F2E36FE0DC015
:10239000232D2E7FA22E891458F434FE0BC032FC5C
:1023A00009C0832D8E7EA82E05C0B82CA32C03C097
:1023B000B82C01C0B92CA4FE0FC0FE01E80DF11D20
:1023C0008081803321F49A2D997EA92E09C0A2FE26
:1023D00006C0B394B39404C08A2D867809F0B394F0
:1023E000A3FC11C0A0FE06C0B21488F4280C922CE5
:1023F0009B180EC0B21460F4B60180E290E00E9417
:102400008A12B394F7CFB21418F42B1802C0982C88
:10241000212CA4FE10C0B60180E390E00E948A1235
:10242000A2FE17C0A1FC03C088E790E002C088E5C7
:1024300090E0B6010CC08A2D867859F0A1FE02C04A
:102440008BE201C080E2A7FC8DE2B60190E00E9421
:102450008A12891438F4B60180E390E00E948A124F
:102460009A94F7CF8A94F301E80DF11D8081B601AB
:1024700090E00E948A128110F5CF222009F442CE0A
:10248000B60180E290E00E948A122A94F6CFF6010B
:102490008681978102C08FEF9FEF2B96E2E10C942B
:1024A00040130F931F93CF93DF93869F8001879FE5
:1024B000100D969F100D1124C8010E940D0EEC0105
:1024C000009729F0A80160E070E00E947812CE0128
:1024D000DF91CF911F910F910895FC0105906150FC
:1024E00070400110D8F7809590958E0F9F1F08952A
:1024F000DC0101C06D9341505040E0F70895FC01AC
:102500006150704001900110D8F7809590958E0F22
:102510009F1F08950F931F93CF93DF93FB01238198
:1025200021FD03C08FEF9FEF2CC022FF16C0468114
:102530005781248135814217530744F4A081B1812A
:102540009D012F5F3F4F318320838C9326813781FC
:102550002F5F3F4F3783268314C08B01EC01FB01B3
:102560000084F185E02D0995892BE1F6D8011696B6
:102570008D919C911797019617969C938E93169721
:10258000CE01DF91CF911F910F910895FA01AA27F3
:10259000283051F1203181F1E8946F936E7F6E5FA6
:1025A0007F4F8F4F9F4FAF4FB1E03ED0B4E03CD054
:1025B000670F781F891F9A1FA11D680F791F8A1F37
:1025C000911DA11D6A0F711D811D911DA11D20D09E
:1025D00009F468943F912AE0269F11243019305D58
:1025E0003193DEF6CF010895462F4770405D419349
:1025F000B3E00FD0C9F7F6CF462F4F70405D4A3396
:1026000018F0495D31FD4052419302D0A9F7EACF5D
:10261000B4E0A6959795879577956795BA95C9F78C
:1026200000976105710508959B01AC010A2E06947F
:102630005795479537952795BA95C9F7620F731F38
:10264000841F951FA01D08952F923F924F925F9275
:102650006F927F928F929F92AF92BF92CF92DF92B2
:10266000EF92FF920F931F93CF93DF93CDB7DEB717
:10267000CA1BDB0B0FB6F894DEBF0FBECDBF0994AB
:102680002A88398848885F846E847D848C849B8402
:10269000AA84B984C884DF80EE80FD800C811B8110
:1026A000AA81B981CE0FD11D0FB6F894DEBF0FBE3F
:0A26B000CDBFED010895F894FFCFAF
:1026BA000000FA012000001200100800427574742C
:1026CA006F6E2076616C75653A202564200A0D00CC
:1026DA004A4F595354496164617364617361736405
:1026EA0054004D61696E204D656E750031504C4144
:1026FA005945520032504C4159455200434F4E54AD
:10270A00524F4C4C4552004A4F59535449434B007F
:10271A00534C494445520043414C49425241544565
:10272A0000627574746F6E207072657373656400ED
:10273A0064656E6E6520706F7369736A6F6E656E1D
:10274A0020656B736973746572657220696B6B655A
:10275A000054696D653A2025642C2564200A0D0011
:10276A004E6F7420696E20636F6E666967206D6FA5
:10277A0064652061667465722072657365742120D0
:0E278A0076616C75653A202578200A0D0000F6
:00000001FF
