:0200000280007C
:10000000B0080020B1020800AD020800AD020800EF
:10001000AD020800AD020800AD02080000000000BB
:10002000000000000000000000000000AD02080019
:10003000AD02080000000000AD020800AD0208009B
:10004000AD020800AD020800AD020800AD020800D4
:10005000AD020800AD020800AD020800AD020800C4
:10006000ED060800AD02080000000000AD02080027
:10007000AD020800AD020800AD020800000000005B
:1000800000000000AD020800AD020800AD0208004B
:10009000AD020800AD020800AD020800AD02080084
:1000A000AD02080000000000AD020800AD0208002B
:1000B000AD020800AD020800AD020800AD02080064
:1000C000AD020800AD020800AD020800AD02080054
:1000D000AD020800AD020800AD020800AD02080044
:1000E000AD020800AD020800AD020800E5010800FD
:1000F000AD02080010B5054C237833B9044B13B199
:100100000448AFF300800123237010BD2C040020AD
:1001100000000000A40908000C4B43B10C4810B5C6
:100120000C49AFF300800C48036823B910BD0A489E
:10013000036833B97047094B002BF7D0BDE8104076
:100140001847064B002BF5D0184700BF00000000F1
:10015000A409080030040020A409080000000000E1
:100160004B0103F1402303F53023D3F8103213F48D
:10017000000F33D030B44B0103F1402303F530239B
:10018000D3F81422D3F81842D3F80852C5F38A459D
:100190000580D3F81032C3F3034383701D465BB16F
:1001A00003300023032BD9BF0270120A0470240A03
:1001B00001330130AB42F5D1094B01F1100252017C
:1001C0004FF08070985003EB4111D1F81C3243F48A
:1001D0000003C1F81C32002030BC7047012070477A
:1001E00000400B402DE9F04184B02548254B98474D
:1001F000254BD3F8108018F0060F26D018F0020F08
:100200002ED118F0040F30D0022101A81F4B9847BF
:10021000BDF804101E481B4CA0479DF806101D4851
:10022000A0479DF806306BB10DF1070500241A4F69
:10023000144E15F8011B3846B04701349DF80630BE
:10024000A342F6DC15480F4B984718F0010F10D168
:100250004FF40062124BC3F8842104B0BDE8F08172
:10026000012101A8094B9847D2E70E48054B984752
:10027000CEE70D48034B98470122034B9A60E7E70E
:10028000C4080800A506080000400B4061010800F2
:1002900004090800180908003409080000090800CA
:1002A00000E100E0D808080038090800FEE7000077
:1002B00008B5184B184A9A4210D0184B154A9A4262
:1002C0000CD2013B9B1A23F003030433134412495D
:1002D00051F8040B42F8040B9A42F9D1104B114A21
:1002E0009A420AD2013B9B1A23F0030304331344BE
:1002F000002142F8041B9342FBD10B4B23F06043D7
:1003000023F07F03094A9360094B9847094B9847AC
:10031000FEE700BF00000020A40908002C04002014
:10032000B00400202C0400200000080000ED00E0D4
:1003300055070800A1030800154A136843F010038D
:100340001360144B1A6F42F480221A675A6842F401
:1003500080225A60104A136843F4281313600F4B2D
:100360001A6822F480721A601A681A601A6842F4D5
:1003700000721A6049F640420C331A6040F2DC52B7
:10038000083B1A604022A3F530731A60704700BF23
:1003900000070E4000120E4000400940C0420940D4
:1003A00008B50C4B1A6842F400221A601A6942F42C
:1003B00000221A611A6842F480121A601A6942F423
:1003C00080121A611A6B42F480121A63024B98472A
:1003D000FEE700BF000E0E40390308002DE9F84388
:1003E0000D46161E48DD0A78002A35D00A4600243C
:1003F000013412F8011F0029FAD1A6422DDC002495
:1004000003F00202002A0CBF4FF020084FF0300822
:1004100013F0010323D1002C28DD26465FFA88F96A
:10042000184F4846B847013EFBD1287888B1154F90
:10043000B847013415F8010F0028F9D1002E08DD66
:1004400035465FFA88F80F4F4046B847013DFBD16B
:1004500034442046BDE8F8830024341BD0E7264608
:10046000287808B10024E2E70024E7E726461C4686
:10047000DBE74FF02008D8E713F00104F9D04FF084
:100480002008EDE7C9060800F0B585B0074681B33E
:100490000C460BB10A2A38D000238DF80F30002605
:1004A000002946D00DF10F050C993A39B4FBF2F34F
:1004B00002FB1343092BC8BF5B18303305F8013D1D
:1004C000B4FBF2F4002CF1D156B10A9B1BB10B9B8B
:1004D00013F0020F25D12D2305F8013C013D002624
:1004E0000B9B0A9A29463846144CA047304405B065
:1004F000F0BD30238DF8043000238DF805300B9BC0
:100500000A9A01A90D4CA047F1E70029C4DA4C4230
:1005100000238DF80F300DF10F05002CD5D00126EA
:10052000C0E72D20064B98470A9B013B0A93012602
:10053000D6E71E460DF10F05D2E700BFDD03080028
:10054000C90608002DE9F04F87B080460B78002BD4
:1005500000F094808B46174600254E4EDFF83CA1F4
:10056000DFF83C9146E0002270E0396804374A48E1
:10057000002908BF01464046D047054435E03968A8
:100580000437612002900193009201230A22404621
:10059000C847054429E03968043761200290019377
:1005A0000092002310224046C84705441DE03968E8
:1005B000043741200290019300920023102240460C
:1005C000C847054411E0396804376120029001935F
:1005D000009200230A224046C847054405E0A3468E
:1005E0009BF80000B04701355C4604F1010B6378CD
:1005F000002B44D0252BF3D10BF101049BF80130E3
:10060000002B3CD0252BEAD02D2B06BF0BF102048A
:10061000012300232278302A05D143F0020314F885
:10062000012F302AF9D02178A1F13002D2B2092A63
:1006300099D8002202EB8202303901EB420214F811
:10064000011FA1F13000C0B20928F3D973298CD061
:10065000642994D078299ED05829A8D07529B2D081
:100660006329C2D1396804378DF8141000218DF840
:10067000151005A94046D0470544B6E70025B8F156
:10068000000F03D0D8F8003000221A70284607B0B7
:10069000BDE8F08FC906080054090800DD03080012
:1006A000890408000FB400B583B004AA52F8041BF3
:1006B00001920020034B984703B05DF804EB04B0AF
:1006C000704700BF45050800074B5B6913F0020F38
:1006D00008D0054BD8611A46536913F4007FFBD04C
:1006E000002070470120704700080E4008B5154BE8
:1006F0005B6913F0E00F03D04FF4A871114A116049
:1007000013F0010F12D010484278531C594203F0E5
:100710003F0301F03F0158BF4B4201788B4206D0A6
:100720000849886908490A4490704B7008BD074819
:10073000074B9847034B9A69034B59780B449A70BF
:1007400008BD00BF00080E40480400205C090800F6
:10075000A506080070B50F4E0F4D761BB61018BFDA
:10076000002405D0013455F8043B9847A642F9D13E
:100770000A4E0B4D00F004F9761BB61018BF00248A
:1007800006D0013455F8043B9847A642F9D170BD14
:1007900070BD00BF8C0908008C090800940908008E
:1007A0008C090800024B13B1024800F005B87047ED
:1007B00000000000C5070800002301461A4618463D
:1007C00000F01EB838B50A4C0A4D641BA4100AD0BC
:1007D00004F18043013B05EB8305013C55F80439E6
:1007E0009847002CF9D1BDE8384000F0D3B800BFDD
:1007F000A4090800A0090800704700BF704700BFA7
:100800002DE9F8432C4D0646286898460F46914638
:10081000FFF7F2FF294B1C68D4F84831002B3ED07B
:100820005A681F2A1CDC02F1010E76B1012103EB8C
:100830008204C4F88890D3F8880191400843022EBE
:10084000C3F88801C4F8088123D00232C3F804E059
:10085000286843F82270FFF7D1FF0020BDE8F88335
:10086000174B0BB34FF4C870AFF300800346D8B1F9
:100870000020D4F848114FF0010E5860196002466C
:10088000C4F84831C3F88801C3F88C01002EDCD0CD
:10089000CCE7D3F88C010143C3F88C11D5E704F5FC
:1008A000A673C4F84831BBE72868FFF7A7FF4FF0ED
:1008B000FF30BDE8F88300BF280400207C09080051
:1008C0000000000043414E3020696E7465727275FD
:1008D00070740A0D0000000043414E30206D6573B6
:1008E00073616765206172726976656420696E2044
:1008F0006E6F6E2D75736564206D61696C626F78C3
:100900000A0D00006D6573736167652069643A20A4
:1009100025640A0D000000006D6573736167652032
:1009200064617461206C656E6774683A2025640A9E
:100930000D0000002564200043414E30204D423020
:1009400020726561647920746F2073656E64200A7B
:100950000D000000286E756C6C2900004552523A5B
:1009600020554152542052582062756666657220A7
:1009700069732066756C6C0A0D0000000000002091
:10098000F8B500BFF8BC08BC9E467047A507080034
:1009900019010800F8B500BFF8BC08BC9E467047B6
:0409A000F500080056
:1009A40000000000EC02002054030020BC030020DF
:1009B4000000000000000000000000000000000033
:1009C4000000000000000000000000000000000023
:1009D4000000000000000000000000000000000013
:1009E4000000000000000000000000000000000003
:1009F40000000000000000000000000000000000F3
:100A040000000000000000000000000000000000E2
:100A140000000000000000000000000000000000D2
:100A240000000000000000000000000000000000C2
:100A340000000000000000000000000000000000B2
:100A440000000000000000000100000000000000A1
:100A54000E33CDAB34126DE6ECDE05000B00000066
:100A64000000000000000000000000000000000082
:100A74000000000000000000000000000000000072
:100A84000000000000000000000000000000000062
:100A94000000000000000000000000000000000052
:0C0DC40000000000000000008C04002073
:040000038000000079
:00000001FF
